{
  "contractName": "CommissionContract",
  "abi": [
    {
      "constant": true,
      "inputs": [
        {
          "name": "",
          "type": "address"
        }
      ],
      "name": "whitelistedICO",
      "outputs": [
        {
          "name": "",
          "type": "bool"
        }
      ],
      "payable": false,
      "stateMutability": "view",
      "type": "function"
    },
    {
      "constant": true,
      "inputs": [
        {
          "name": "",
          "type": "address"
        }
      ],
      "name": "commissionsICO",
      "outputs": [
        {
          "name": "numberOfInvestContracts",
          "type": "uint256"
        },
        {
          "name": "numberOfPayedContracts",
          "type": "uint256"
        },
        {
          "name": "commission",
          "type": "uint256"
        },
        {
          "name": "jot",
          "type": "bool"
        }
      ],
      "payable": false,
      "stateMutability": "view",
      "type": "function"
    },
    {
      "constant": true,
      "inputs": [
        {
          "name": "",
          "type": "address"
        }
      ],
      "name": "commissionsInvestContracts",
      "outputs": [
        {
          "name": "ICOAddress",
          "type": "address"
        },
        {
          "name": "jot",
          "type": "bool"
        },
        {
          "name": "payment",
          "type": "uint256"
        },
        {
          "name": "payed",
          "type": "bool"
        }
      ],
      "payable": false,
      "stateMutability": "view",
      "type": "function"
    },
    {
      "constant": true,
      "inputs": [],
      "name": "juryOnlineWallet",
      "outputs": [
        {
          "name": "",
          "type": "address"
        }
      ],
      "payable": false,
      "stateMutability": "view",
      "type": "function"
    },
    {
      "constant": true,
      "inputs": [],
      "name": "icoCounter",
      "outputs": [
        {
          "name": "",
          "type": "uint256"
        }
      ],
      "payable": false,
      "stateMutability": "view",
      "type": "function"
    },
    {
      "constant": true,
      "inputs": [],
      "name": "tokenJOT",
      "outputs": [
        {
          "name": "",
          "type": "address"
        }
      ],
      "payable": false,
      "stateMutability": "view",
      "type": "function"
    },
    {
      "constant": true,
      "inputs": [],
      "name": "jotTokenAddress",
      "outputs": [
        {
          "name": "",
          "type": "address"
        }
      ],
      "payable": false,
      "stateMutability": "view",
      "type": "function"
    },
    {
      "constant": true,
      "inputs": [],
      "name": "commissionPaymentCounter",
      "outputs": [
        {
          "name": "",
          "type": "uint256"
        }
      ],
      "payable": false,
      "stateMutability": "view",
      "type": "function"
    },
    {
      "inputs": [
        {
          "name": "_juryOnlineWallet",
          "type": "address"
        },
        {
          "name": "_jotTokenAddress",
          "type": "address"
        }
      ],
      "payable": false,
      "stateMutability": "nonpayable",
      "type": "constructor"
    },
    {
      "payable": true,
      "stateMutability": "payable",
      "type": "fallback"
    },
    {
      "constant": false,
      "inputs": [
        {
          "name": "_approvedICO",
          "type": "address"
        }
      ],
      "name": "addWhitelist",
      "outputs": [],
      "payable": false,
      "stateMutability": "nonpayable",
      "type": "function"
    },
    {
      "constant": false,
      "inputs": [
        {
          "name": "_commission",
          "type": "uint256"
        },
        {
          "name": "payInJOT",
          "type": "bool"
        }
      ],
      "name": "addNewICO",
      "outputs": [],
      "payable": false,
      "stateMutability": "nonpayable",
      "type": "function"
    },
    {
      "constant": false,
      "inputs": [
        {
          "name": "_investContractAddress",
          "type": "address"
        },
        {
          "name": "payInJOT",
          "type": "bool"
        },
        {
          "name": "_payment",
          "type": "uint256"
        }
      ],
      "name": "addNewInvestContract",
      "outputs": [],
      "payable": false,
      "stateMutability": "nonpayable",
      "type": "function"
    },
    {
      "constant": false,
      "inputs": [
        {
          "name": "payInJOT",
          "type": "bool"
        },
        {
          "name": "_investContractAddress",
          "type": "address"
        },
        {
          "name": "_commisionPaid",
          "type": "uint256"
        },
        {
          "name": "_commissioninJOT",
          "type": "uint256"
        },
        {
          "name": "_projectWallet",
          "type": "address"
        }
      ],
      "name": "payCommission",
      "outputs": [],
      "payable": false,
      "stateMutability": "nonpayable",
      "type": "function"
    }
  ],
  "bytecode": "0x60806040526000600355600060045534801561001a57600080fd5b506040516040806110d6833981018060405281019080805190602001909291908051906020019092919050505081600660006101000a81548173ffffffffffffffffffffffffffffffffffffffff021916908373ffffffffffffffffffffffffffffffffffffffff16021790555080600760006101000a81548173ffffffffffffffffffffffffffffffffffffffff021916908373ffffffffffffffffffffffffffffffffffffffff160217905550600760009054906101000a900473ffffffffffffffffffffffffffffffffffffffff16600560006101000a81548173ffffffffffffffffffffffffffffffffffffffff021916908373ffffffffffffffffffffffffffffffffffffffff1602179055505050610f998061013d6000396000f3006080604052600436106100ba576000357c0100000000000000000000000000000000000000000000000000000000900463ffffffff1680631499f419146100bc578063184e35a31461013f57806357013d50146101985780635c8ab58d146101f3578063703ad71e146102635780638a863fbd146103035780639107f45f1461035a578063972a9a991461038557806398c5a583146103be5780639a33c9cc14610415578063df6757b31461046c578063f80f5dd514610497575b005b3480156100c857600080fd5b5061013d600480360381019080803515159060200190929190803573ffffffffffffffffffffffffffffffffffffffff1690602001909291908035906020019092919080359060200190929190803573ffffffffffffffffffffffffffffffffffffffff1690602001909291905050506104da565b005b34801561014b57600080fd5b50610196600480360381019080803573ffffffffffffffffffffffffffffffffffffffff16906020019092919080351515906020019092919080359060200190929190505050610985565b005b3480156101a457600080fd5b506101d9600480360381019080803573ffffffffffffffffffffffffffffffffffffffff169060200190929190505050610c01565b604051808215151515815260200191505060405180910390f35b3480156101ff57600080fd5b50610234600480360381019080803573ffffffffffffffffffffffffffffffffffffffff169060200190929190505050610c21565b604051808581526020018481526020018381526020018215151515815260200194505050505060405180910390f35b34801561026f57600080fd5b506102a4600480360381019080803573ffffffffffffffffffffffffffffffffffffffff169060200190929190505050610c5e565b604051808573ffffffffffffffffffffffffffffffffffffffff1673ffffffffffffffffffffffffffffffffffffffff168152602001841515151581526020018381526020018215151515815260200194505050505060405180910390f35b34801561030f57600080fd5b50610318610cc8565b604051808273ffffffffffffffffffffffffffffffffffffffff1673ffffffffffffffffffffffffffffffffffffffff16815260200191505060405180910390f35b34801561036657600080fd5b5061036f610cee565b6040518082815260200191505060405180910390f35b34801561039157600080fd5b506103bc60048036038101908080359060200190929190803515159060200190929190505050610cf4565b005b3480156103ca57600080fd5b506103d3610ea3565b604051808273ffffffffffffffffffffffffffffffffffffffff1673ffffffffffffffffffffffffffffffffffffffff16815260200191505060405180910390f35b34801561042157600080fd5b5061042a610ec9565b604051808273ffffffffffffffffffffffffffffffffffffffff1673ffffffffffffffffffffffffffffffffffffffff16815260200191505060405180910390f35b34801561047857600080fd5b50610481610eef565b6040518082815260200191505060405180910390f35b3480156104a357600080fd5b506104d8600480360381019080803573ffffffffffffffffffffffffffffffffffffffff169060200190929190505050610ef5565b005b600080600115156000803373ffffffffffffffffffffffffffffffffffffffff1673ffffffffffffffffffffffffffffffffffffffff16815260200190815260200160002060009054906101000a900460ff16151514151561053b57600080fd5b86156107ec57600560009054906101000a900473ffffffffffffffffffffffffffffffffffffffff1673ffffffffffffffffffffffffffffffffffffffff166323b872dd3330876040518463ffffffff167c0100000000000000000000000000000000000000000000000000000000028152600401808473ffffffffffffffffffffffffffffffffffffffff1673ffffffffffffffffffffffffffffffffffffffff1681526020018373ffffffffffffffffffffffffffffffffffffffff1673ffffffffffffffffffffffffffffffffffffffff1681526020018281526020019350505050602060405180830381600087803b15801561063a57600080fd5b505af115801561064e573d6000803e3d6000fd5b505050506040513d602081101561066457600080fd5b8101908080519060200190929190505050151561067d57fe5b8273ffffffffffffffffffffffffffffffffffffffff166108fc869081150290604051600060405180830381858888f193505050501580156106c3573d6000803e3d6000fd5b50600560009054906101000a900473ffffffffffffffffffffffffffffffffffffffff1673ffffffffffffffffffffffffffffffffffffffff1663095ea7b3600660009054906101000a900473ffffffffffffffffffffffffffffffffffffffff16866040518363ffffffff167c0100000000000000000000000000000000000000000000000000000000028152600401808373ffffffffffffffffffffffffffffffffffffffff1673ffffffffffffffffffffffffffffffffffffffff16815260200182815260200192505050602060405180830381600087803b1580156107ab57600080fd5b505af11580156107bf573d6000803e3d6000fd5b505050506040513d60208110156107d557600080fd5b810190808051906020019092919050505050610856565b600660009054906101000a900473ffffffffffffffffffffffffffffffffffffffff1673ffffffffffffffffffffffffffffffffffffffff166108fc869081150290604051600060405180830381858888f19350505050158015610854573d6000803e3d6000fd5b505b60018060008873ffffffffffffffffffffffffffffffffffffffff1673ffffffffffffffffffffffffffffffffffffffff16815260200190815260200160002060020160006101000a81548160ff021916908315150217905550600260003373ffffffffffffffffffffffffffffffffffffffff1673ffffffffffffffffffffffffffffffffffffffff16815260200190815260200160002091508160010154905061090c600182610f4f90919063ffffffff16565b8260010181905550816004013390806001815401808255809150509060018203906000526020600020016000909192909190916101000a81548173ffffffffffffffffffffffffffffffffffffffff021916908373ffffffffffffffffffffffffffffffffffffffff1602179055505050505050505050565b600115156000803373ffffffffffffffffffffffffffffffffffffffff1673ffffffffffffffffffffffffffffffffffffffff16815260200190815260200160002060009054906101000a900460ff1615151415156109e357600080fd5b33600160008573ffffffffffffffffffffffffffffffffffffffff1673ffffffffffffffffffffffffffffffffffffffff16815260200190815260200160002060000160006101000a81548173ffffffffffffffffffffffffffffffffffffffff021916908373ffffffffffffffffffffffffffffffffffffffff16021790555081600160008573ffffffffffffffffffffffffffffffffffffffff1673ffffffffffffffffffffffffffffffffffffffff16815260200190815260200160002060000160146101000a81548160ff02191690831515021790555080600160008573ffffffffffffffffffffffffffffffffffffffff1673ffffffffffffffffffffffffffffffffffffffff168152602001908152602001600020600101819055506000600160008573ffffffffffffffffffffffffffffffffffffffff1673ffffffffffffffffffffffffffffffffffffffff16815260200190815260200160002060020160006101000a81548160ff021916908315150217905550610bb66001600260003373ffffffffffffffffffffffffffffffffffffffff1673ffffffffffffffffffffffffffffffffffffffff16815260200190815260200160002060000154610f4f90919063ffffffff16565b600260003373ffffffffffffffffffffffffffffffffffffffff1673ffffffffffffffffffffffffffffffffffffffff16815260200190815260200160002060000181905550505050565b60006020528060005260406000206000915054906101000a900460ff1681565b60026020528060005260406000206000915090508060000154908060010154908060020154908060030160009054906101000a900460ff16905084565b60016020528060005260406000206000915090508060000160009054906101000a900473ffffffffffffffffffffffffffffffffffffffff16908060000160149054906101000a900460ff16908060010154908060020160009054906101000a900460ff16905084565b600660009054906101000a900473ffffffffffffffffffffffffffffffffffffffff1681565b60035481565b600115156000803373ffffffffffffffffffffffffffffffffffffffff1673ffffffffffffffffffffffffffffffffffffffff16815260200190815260200160002060009054906101000a900460ff161515141515610d5257600080fd5b81600260003373ffffffffffffffffffffffffffffffffffffffff1673ffffffffffffffffffffffffffffffffffffffff1681526020019081526020016000206002018190555080600260003373ffffffffffffffffffffffffffffffffffffffff1673ffffffffffffffffffffffffffffffffffffffff16815260200190815260200160002060030160006101000a81548160ff0219169083151502179055506000600260003373ffffffffffffffffffffffffffffffffffffffff1673ffffffffffffffffffffffffffffffffffffffff168152602001908152602001600020600001819055506000600260003373ffffffffffffffffffffffffffffffffffffffff1673ffffffffffffffffffffffffffffffffffffffff16815260200190815260200160002060010181905550610e996001600354610f4f90919063ffffffff16565b6003819055505050565b600560009054906101000a900473ffffffffffffffffffffffffffffffffffffffff1681565b600760009054906101000a900473ffffffffffffffffffffffffffffffffffffffff1681565b60045481565b60016000808373ffffffffffffffffffffffffffffffffffffffff1673ffffffffffffffffffffffffffffffffffffffff16815260200190815260200160002060006101000a81548160ff02191690831515021790555050565b6000808284019050838110151515610f6357fe5b80915050929150505600a165627a7a7230582089733f022decba5a27cbe7155ae7169925c0402a2d7a25648310e8fe0e575c010029",
  "source": "pragma solidity ^0.4.20;\nimport \"./ERC20Token.sol\";\nimport \"./JOTOracle.sol\";\n// PRELIMINARY CONSIDERATIONS:\n\n// A commission is initiated with the funding of an InvestContract, thus\n// One commission is associated with one InvestContract, and\n// One InvestContract is associated to one ICOContract.\n\n// An ICOContract has many InvestContracts, and thus many commissions\n\n\n// Commissions in ETH only depend on the Investor Funding the Contract.\n// Commissions in JOT depend on the ICO address having an allowance.\n\n/*\nCommissionContract sample architecture:\n\nMappings:\n -- commissions_inv\n        Here the key is the address of the InvestContract, and the value is a\n        struct containing:\n        - address ICOAddress; (address of ICO associated with InvestContract)\n        - uint payment; (amount of commission that has to be payed)\n        - bool payed; (whether the InvestContract was deposited)\n\n -- commissions_ico\n        Here the key is the address of the ICOContract, and the value is a\n        struct containing:\n        - uint number_of_invest_contracts; (counts how many InvestContract added)\n        - uint number_of_payed_contracts; (counts how many InvestContract deposited)\n        - uint commission; (commission in percentage defined by ICOContract)\n        - bool jot; (whether commission is in JOT or not)\n        - address[] invest_contracts; (a list of the addresses of payed InvestContracts)\n\nThese two mappings allow to find whether a specific investment contract as payed\nand the amount required, and also to find all of the investcontracts associated\nwith a specific ICO.\n\nFunctionality:\n\n- When an ICOContract is deployed, it calls this contract so that it adds\n    that ICO to the mapping of ICO's\n- When an InvestContract is added, either InvestContract or ICOContract call\n    this contract so that it adds information about pending InvestContracts\n- When an InvestContract is payed, either InvestContract or ICOContract call\n    this contract so it updates the payment information\n\nPayment Logic:\n\n(At the moment, ETH commission is done as a transfer directly from InvestContract\n    to JuryOnlineWallet. We can change it to the following, so that\n    CommissionContract handles the payments)\n\n- InvestContract transfers ETH commission to CommissionContract.\n- If commission payment is set as ETH, then CommissionContract immediately\n    transfers commission to JuryOnlineWallet\n- If commission payment is set as JOT, then CommissionContract holds the ETH\n    payment, checks if ICOContract has enough JOT allowance to give to Jury,\n    if it does, then JOT allowance is made and ETH is transfered to Project.\n\n\nChanges in ICO and InvestContract:\n\nInvestContract changes:\n    - the payable function, instead of having a transfer to JuryOnlineWallet, it\n    could have a transfer to CommissionContract.\n        (Note: if we do this, then ETH commissions have to go through 2 transfers\n        instead of directly, so we could have a logic the if its ETH payment, then\n        transfer is done directly to juryOnlineWallet and if its JOT, then transfer\n        ETH to CommissionContract. However, this would not compartmentalize\n        commission handling)\nICOContract changes:\n    - When InvestContract calls investContractDeposited(), if commission is in\n    JOT, then contract makes an allowance for JOT tokens. If allowance is made\n    succesfully then notifies CommissionContract. CommissionContract then\n    releases ETH to project.\n\n\n\n\n\n\n\n */\n// Right now no protection to what contracts can addNewICO\n// There are no modifiers\n\n\ncontract CommissionContract {\n    using SafeMath for uint256;\n    // only WhiteListed ICO contracts can interact with this contract\n    // Only JuryOnlineOperator can add ICO's to whitelist\n    mapping(address => bool) public whitelistedICO;\n    //--------------------------------------------------------------------------\n    // The below maps the address of the InvestContract with a CommissionInfo struct\n    // This only allows access by knowing address of InvestContract\n    struct commissionInfo {\n        address ICOAddress;\n        // JOT field may be redundant since it is set by ICOContract\n        bool jot;\n        uint payment;\n        bool payed;\n    }\n    mapping(address => commissionInfo) public commissionsInvestContracts;\n    //--------------------------------------------------------------------------\n    //--------------------------------------------------------------------------\n    // The below maps the address of an ICOContract with a list of InvestContracts\n    // This allows access to the InvestContracts associated with an ICOContract\n    struct ICOCommissions {\n        uint numberOfInvestContracts;\n        uint numberOfPayedContracts;\n        uint commission;\n        bool jot;\n        address[] investContracts;\n    }\n    mapping(address => ICOCommissions) public commissionsICO;\n    //--------------------------------------------------------------------------\n    //--------------------------------------------------------------------------\n    uint public icoCounter = 0;\n    uint public commissionPaymentCounter = 0;\n    Token public tokenJOT;\n    address public juryOnlineWallet;\n    address public jotTokenAddress;\n    //address public juryOnlineWallet = 0x3e134C5dAf56e0e28bd04beD46969Bd516932f02;\n    //address public jotTokenAddress = 0xaa588d3737b611bafd7bd713445b314bd453a5c8;\n    //--------------------------------------------------------------------------\n    //--------------------------------------------------------------------------\n    modifier onlyApprovedICO() {\n      require(whitelistedICO[msg.sender] == true);\n      _;\n    }\n\n    /* modifier onlyOperator() {\n      require()\n    } */\n    constructor(address _juryOnlineWallet, address _jotTokenAddress) public {\n        juryOnlineWallet = _juryOnlineWallet;\n        jotTokenAddress = _jotTokenAddress;\n        tokenJOT = Token(jotTokenAddress);\n    }\n\n    function addWhitelist(address _approvedICO) public {\n      whitelistedICO[_approvedICO] = true;\n    }\n\n\n    function addNewICO(uint _commission, bool payInJOT) public onlyApprovedICO {\n        // Called by ICOContract, creates entry in commissions_ico mapping\n        commissionsICO[msg.sender].commission = _commission;\n        commissionsICO[msg.sender].jot = payInJOT;\n\n        commissionsICO[msg.sender].numberOfInvestContracts = 0;\n        commissionsICO[msg.sender].numberOfPayedContracts = 0;\n        icoCounter = icoCounter.add(1);\n        /* ico_counter = ico_counter + 1; */\n    }\n\n    function addNewInvestContract(address _investContractAddress, bool payInJOT, uint _payment) public onlyApprovedICO {\n        // Called by ICOContract, creates entry in commissions_inv mapping\n        commissionsInvestContracts[_investContractAddress].ICOAddress = msg.sender;\n        commissionsInvestContracts[_investContractAddress].jot = payInJOT;\n        commissionsInvestContracts[_investContractAddress].payment = _payment;\n        commissionsInvestContracts[_investContractAddress].payed = false;\n\n        commissionsICO[msg.sender].numberOfInvestContracts = commissionsICO[msg.sender].numberOfInvestContracts.add(1);\n    }\n\n    function() payable public {\n      /* commission_payment_counter = commission_payment_counter + 1; */\n    }\n\n    function payCommission(bool payInJOT, address _investContractAddress, uint _commisionPaid, uint _commissioninJOT, address _projectWallet) public onlyApprovedICO {\n        // Called by ICOContract funds deposited and commission can be payed\n\n        //require(commissions_inv[msg.sender].payment == _payment) maybe unnecesary because already defined in InvestContract\n\n        if (payInJOT) {\n            // Logic to Pay in JOT\n            assert(tokenJOT.transferFrom(msg.sender, this, _commissioninJOT));\n            // This sends ETH to Project Wallet since it was paid in JOT\n            _projectWallet.transfer(_commisionPaid);\n            tokenJOT.approve(juryOnlineWallet, _commissioninJOT);\n        } else {\n            // ETH Logic, send ETH to JuryOnlineWallet\n            juryOnlineWallet.transfer(_commisionPaid);\n        }\n\n        //\n        commissionsInvestContracts[_investContractAddress].payed = true;\n\n\n        // Do I need to Storage?\n        ICOCommissions storage commIco = commissionsICO[msg.sender];\n        uint numPayedContracts = commIco.numberOfPayedContracts;\n        /* comm_ico.invest_contracts[npc] = msg.sender; */\n        commIco.numberOfPayedContracts = numPayedContracts.add(1);\n        commIco.investContracts.push(msg.sender);\n\n    }\n\n\n}\n",
  "sourcePath": "/Users/juanbernardotobar/lacanoa/daploy/contracts/CommissionContract.sol",
  "compiler": {
    "name": "solc",
    "version": "0.4.24+commit.e67f0147.Emscripten.clang"
  },
  "schemaVersion": "2.0.1",
  "updatedAt": "2018-07-18T10:18:00.515Z"
}