{
  "contractName": "ICOContract",
  "abi": [
    {
      "constant": true,
      "inputs": [],
      "name": "jotOracle",
      "outputs": [
        {
          "name": "",
          "type": "address"
        }
      ],
      "payable": false,
      "stateMutability": "view",
      "type": "function"
    },
    {
      "constant": true,
      "inputs": [],
      "name": "quorum",
      "outputs": [
        {
          "name": "",
          "type": "uint256"
        }
      ],
      "payable": false,
      "stateMutability": "view",
      "type": "function"
    },
    {
      "constant": true,
      "inputs": [
        {
          "name": "",
          "type": "address"
        }
      ],
      "name": "investContractsIndices",
      "outputs": [
        {
          "name": "",
          "type": "uint256"
        }
      ],
      "payable": false,
      "stateMutability": "view",
      "type": "function"
    },
    {
      "constant": true,
      "inputs": [],
      "name": "minimalInvestment",
      "outputs": [
        {
          "name": "",
          "type": "uint256"
        }
      ],
      "payable": false,
      "stateMutability": "view",
      "type": "function"
    },
    {
      "constant": true,
      "inputs": [],
      "name": "maximumCap",
      "outputs": [
        {
          "name": "",
          "type": "uint256"
        }
      ],
      "payable": false,
      "stateMutability": "view",
      "type": "function"
    },
    {
      "constant": true,
      "inputs": [
        {
          "name": "",
          "type": "address"
        }
      ],
      "name": "pendingInvestContracts",
      "outputs": [
        {
          "name": "",
          "type": "bool"
        }
      ],
      "payable": false,
      "stateMutability": "view",
      "type": "function"
    },
    {
      "constant": true,
      "inputs": [],
      "name": "sealTimestamp",
      "outputs": [
        {
          "name": "",
          "type": "uint256"
        }
      ],
      "payable": false,
      "stateMutability": "view",
      "type": "function"
    },
    {
      "constant": true,
      "inputs": [],
      "name": "operator",
      "outputs": [
        {
          "name": "",
          "type": "address"
        }
      ],
      "payable": false,
      "stateMutability": "view",
      "type": "function"
    },
    {
      "constant": true,
      "inputs": [],
      "name": "totalToken",
      "outputs": [
        {
          "name": "",
          "type": "uint256"
        }
      ],
      "payable": false,
      "stateMutability": "view",
      "type": "function"
    },
    {
      "constant": true,
      "inputs": [],
      "name": "etherLeft",
      "outputs": [
        {
          "name": "",
          "type": "uint256"
        }
      ],
      "payable": false,
      "stateMutability": "view",
      "type": "function"
    },
    {
      "constant": true,
      "inputs": [],
      "name": "juryOnlineWallet",
      "outputs": [
        {
          "name": "",
          "type": "address"
        }
      ],
      "payable": false,
      "stateMutability": "view",
      "type": "function"
    },
    {
      "constant": true,
      "inputs": [],
      "name": "payInJot",
      "outputs": [
        {
          "name": "",
          "type": "bool"
        }
      ],
      "payable": false,
      "stateMutability": "view",
      "type": "function"
    },
    {
      "constant": true,
      "inputs": [],
      "name": "tokenLeft",
      "outputs": [
        {
          "name": "",
          "type": "uint256"
        }
      ],
      "payable": false,
      "stateMutability": "view",
      "type": "function"
    },
    {
      "constant": true,
      "inputs": [],
      "name": "tokenJOT",
      "outputs": [
        {
          "name": "",
          "type": "address"
        }
      ],
      "payable": false,
      "stateMutability": "view",
      "type": "function"
    },
    {
      "constant": true,
      "inputs": [],
      "name": "oracleAddress",
      "outputs": [
        {
          "name": "",
          "type": "address"
        }
      ],
      "payable": false,
      "stateMutability": "view",
      "type": "function"
    },
    {
      "constant": true,
      "inputs": [],
      "name": "totalEther",
      "outputs": [
        {
          "name": "",
          "type": "uint256"
        }
      ],
      "payable": false,
      "stateMutability": "view",
      "type": "function"
    },
    {
      "constant": true,
      "inputs": [],
      "name": "currentMilestone",
      "outputs": [
        {
          "name": "",
          "type": "uint256"
        }
      ],
      "payable": false,
      "stateMutability": "view",
      "type": "function"
    },
    {
      "constant": true,
      "inputs": [],
      "name": "projectWallet",
      "outputs": [
        {
          "name": "",
          "type": "address"
        }
      ],
      "payable": false,
      "stateMutability": "view",
      "type": "function"
    },
    {
      "constant": true,
      "inputs": [],
      "name": "commission",
      "outputs": [
        {
          "name": "",
          "type": "uint256"
        }
      ],
      "payable": false,
      "stateMutability": "view",
      "type": "function"
    },
    {
      "constant": true,
      "inputs": [],
      "name": "commissionContractAddress",
      "outputs": [
        {
          "name": "",
          "type": "address"
        }
      ],
      "payable": false,
      "stateMutability": "view",
      "type": "function"
    },
    {
      "constant": true,
      "inputs": [
        {
          "name": "",
          "type": "uint256"
        }
      ],
      "name": "milestones",
      "outputs": [
        {
          "name": "etherAmount",
          "type": "uint256"
        },
        {
          "name": "tokenAmount",
          "type": "uint256"
        },
        {
          "name": "startTime",
          "type": "uint256"
        },
        {
          "name": "finishTime",
          "type": "uint256"
        },
        {
          "name": "duration",
          "type": "uint256"
        },
        {
          "name": "description",
          "type": "string"
        },
        {
          "name": "result",
          "type": "string"
        }
      ],
      "payable": false,
      "stateMutability": "view",
      "type": "function"
    },
    {
      "constant": true,
      "inputs": [],
      "name": "minimumCap",
      "outputs": [
        {
          "name": "",
          "type": "uint256"
        }
      ],
      "payable": false,
      "stateMutability": "view",
      "type": "function"
    },
    {
      "constant": true,
      "inputs": [],
      "name": "token",
      "outputs": [
        {
          "name": "",
          "type": "address"
        }
      ],
      "payable": false,
      "stateMutability": "view",
      "type": "function"
    },
    {
      "constant": true,
      "inputs": [
        {
          "name": "",
          "type": "uint256"
        }
      ],
      "name": "investContracts",
      "outputs": [
        {
          "name": "",
          "type": "address"
        }
      ],
      "payable": false,
      "stateMutability": "view",
      "type": "function"
    },
    {
      "inputs": [
        {
          "name": "_tokenAddress",
          "type": "address"
        },
        {
          "name": "_projectWallet",
          "type": "address"
        },
        {
          "name": "_sealTimestamp",
          "type": "uint256"
        },
        {
          "name": "_minimumCap",
          "type": "uint256"
        },
        {
          "name": "_maximumCap",
          "type": "uint256"
        },
        {
          "name": "_minimalInvestment",
          "type": "uint256"
        },
        {
          "name": "_operator",
          "type": "address"
        },
        {
          "name": "_quorum",
          "type": "uint256"
        },
        {
          "name": "_payInJot",
          "type": "bool"
        },
        {
          "name": "_commissionContractAddress",
          "type": "address"
        },
        {
          "name": "_juryOnlineWallet",
          "type": "address"
        },
        {
          "name": "_jotTokenAddress",
          "type": "address"
        },
        {
          "name": "_oracleAddress",
          "type": "address"
        }
      ],
      "payable": false,
      "stateMutability": "nonpayable",
      "type": "constructor"
    },
    {
      "constant": false,
      "inputs": [
        {
          "name": "_etherAmount",
          "type": "uint256"
        },
        {
          "name": "_tokenAmount",
          "type": "uint256"
        },
        {
          "name": "_startTime",
          "type": "uint256"
        },
        {
          "name": "_duration",
          "type": "uint256"
        },
        {
          "name": "_description",
          "type": "string"
        }
      ],
      "name": "addMilestone",
      "outputs": [
        {
          "name": "",
          "type": "uint256"
        }
      ],
      "payable": false,
      "stateMutability": "nonpayable",
      "type": "function"
    },
    {
      "constant": false,
      "inputs": [
        {
          "name": "_id",
          "type": "uint256"
        },
        {
          "name": "_etherAmount",
          "type": "uint256"
        },
        {
          "name": "_tokenAmount",
          "type": "uint256"
        },
        {
          "name": "_startTime",
          "type": "uint256"
        },
        {
          "name": "_duration",
          "type": "uint256"
        },
        {
          "name": "_description",
          "type": "string"
        }
      ],
      "name": "editMilestone",
      "outputs": [],
      "payable": false,
      "stateMutability": "nonpayable",
      "type": "function"
    },
    {
      "constant": false,
      "inputs": [],
      "name": "seal",
      "outputs": [],
      "payable": false,
      "stateMutability": "nonpayable",
      "type": "function"
    },
    {
      "constant": false,
      "inputs": [
        {
          "name": "_result",
          "type": "string"
        }
      ],
      "name": "finishMilestone",
      "outputs": [],
      "payable": false,
      "stateMutability": "nonpayable",
      "type": "function"
    },
    {
      "constant": false,
      "inputs": [],
      "name": "startNextMilestone",
      "outputs": [],
      "payable": false,
      "stateMutability": "nonpayable",
      "type": "function"
    },
    {
      "constant": false,
      "inputs": [
        {
          "name": "_investContractAddress",
          "type": "address"
        }
      ],
      "name": "addInvestContract",
      "outputs": [],
      "payable": false,
      "stateMutability": "nonpayable",
      "type": "function"
    },
    {
      "constant": false,
      "inputs": [],
      "name": "investContractDeposited",
      "outputs": [],
      "payable": false,
      "stateMutability": "nonpayable",
      "type": "function"
    },
    {
      "constant": false,
      "inputs": [],
      "name": "deleteInvestContract",
      "outputs": [],
      "payable": false,
      "stateMutability": "nonpayable",
      "type": "function"
    },
    {
      "constant": false,
      "inputs": [],
      "name": "returnTokens",
      "outputs": [],
      "payable": false,
      "stateMutability": "nonpayable",
      "type": "function"
    },
    {
      "constant": true,
      "inputs": [],
      "name": "getCurrentMilestone",
      "outputs": [
        {
          "name": "",
          "type": "uint256"
        }
      ],
      "payable": false,
      "stateMutability": "view",
      "type": "function"
    },
    {
      "constant": true,
      "inputs": [],
      "name": "milestonesLength",
      "outputs": [
        {
          "name": "",
          "type": "uint256"
        }
      ],
      "payable": false,
      "stateMutability": "view",
      "type": "function"
    }
  ],
  "bytecode": "0x60806040526001600355602060405190810160405280600060ff16815250600a9060016200002f92919062000353565b503480156200003d57600080fd5b506040516101a08062002e1e8339810180604052810190808051906020019092919080519060200190929190805190602001909291908051906020019092919080519060200190929190805190602001909291908051906020019092919080519060200190929190805190602001909291908051906020019092919080519060200190929190805190602001909291908051906020019092919050505086600160006101000a81548173ffffffffffffffffffffffffffffffffffffffff021916908373ffffffffffffffffffffffffffffffffffffffff1602179055508c601060006101000a81548173ffffffffffffffffffffffffffffffffffffffff021916908373ffffffffffffffffffffffffffffffffffffffff1602179055508b6000806101000a81548173ffffffffffffffffffffffffffffffffffffffff021916908373ffffffffffffffffffffffffffffffffffffffff1602179055508a6016819055508960118190555088601281905550876013819055508560088190555084600460006101000a81548160ff02191690831515021790555083600460016101000a81548173ffffffffffffffffffffffffffffffffffffffff021916908373ffffffffffffffffffffffffffffffffffffffff16021790555082600260006101000a81548173ffffffffffffffffffffffffffffffffffffffff021916908373ffffffffffffffffffffffffffffffffffffffff16021790555081600660006101000a81548173ffffffffffffffffffffffffffffffffffffffff021916908373ffffffffffffffffffffffffffffffffffffffff16021790555080600760006101000a81548173ffffffffffffffffffffffffffffffffffffffff021916908373ffffffffffffffffffffffffffffffffffffffff160217905550600760009054906101000a900473ffffffffffffffffffffffffffffffffffffffff16600560006101000a81548173ffffffffffffffffffffffffffffffffffffffff021916908373ffffffffffffffffffffffffffffffffffffffff1602179055505050505050505050505050505062000415565b828054828255906000526020600020908101928215620003bc579160200282015b82811115620003bb5782518260006101000a81548173ffffffffffffffffffffffffffffffffffffffff021916908360ff1602179055509160200191906001019062000374565b5b509050620003cb9190620003cf565b5090565b6200041291905b808211156200040e57600081816101000a81549073ffffffffffffffffffffffffffffffffffffffff021916905550600101620003d6565b5090565b90565b6129f980620004256000396000f3006080604052600436106101b7576000357c0100000000000000000000000000000000000000000000000000000000900463ffffffff16806306bc7ef3146101bc57806306fe0c29146101d357806315ecb9e21461023c5780631703a0181461029357806317c2b2ef146102be57806318d0073e1461031557806319edc0aa1461032c5780631c42959c14610357578063299a017c146103825780633baba4d7146103ad5780633fb27b85146103d8578063441b4f01146103ef5780634ad85e4c146104065780634e51193b14610461578063570ca7351461048c578063626be567146104e3578063681fd1291461050e5780638243fd61146105515780638838b68e146105f65780638a863fbd1461062157806390dd3959146106785780639679dd7d146106a757806398c5a583146106d2578063a89ae4ba14610729578063ae6e22f114610780578063b0304813146107ab578063beb08ab9146107d6578063d3bdbd8f1461082d578063e1489191146108c8578063e487204e146108f3578063e89e4ed61461094a578063f381f2a514610a7f578063f9718fc814610aaa578063fc0c546a14610ac1578063fcc5b5ad14610b18575b600080fd5b3480156101c857600080fd5b506101d1610b85565b005b3480156101df57600080fd5b5061023a600480360381019080803590602001908201803590602001908080601f0160208091040260200160405190810160405280939291908181526020018383808284378201915050505050509192919290505050610cdf565b005b34801561024857600080fd5b50610251610de9565b604051808273ffffffffffffffffffffffffffffffffffffffff1673ffffffffffffffffffffffffffffffffffffffff16815260200191505060405180910390f35b34801561029f57600080fd5b506102a8610e0f565b6040518082815260200191505060405180910390f35b3480156102ca57600080fd5b506102ff600480360381019080803573ffffffffffffffffffffffffffffffffffffffff169060200190929190505050610e15565b6040518082815260200191505060405180910390f35b34801561032157600080fd5b5061032a610e2d565b005b34801561033857600080fd5b50610341611016565b6040518082815260200191505060405180910390f35b34801561036357600080fd5b5061036c61101c565b6040518082815260200191505060405180910390f35b34801561038e57600080fd5b50610397611022565b6040518082815260200191505060405180910390f35b3480156103b957600080fd5b506103c261102c565b6040518082815260200191505060405180910390f35b3480156103e457600080fd5b506103ed611039565b005b3480156103fb57600080fd5b506104046111a3565b005b34801561041257600080fd5b50610447600480360381019080803573ffffffffffffffffffffffffffffffffffffffff169060200190929190505050611aec565b604051808215151515815260200191505060405180910390f35b34801561046d57600080fd5b50610476611b0c565b6040518082815260200191505060405180910390f35b34801561049857600080fd5b506104a1611b12565b604051808273ffffffffffffffffffffffffffffffffffffffff1673ffffffffffffffffffffffffffffffffffffffff16815260200191505060405180910390f35b3480156104ef57600080fd5b506104f8611b38565b6040518082815260200191505060405180910390f35b34801561051a57600080fd5b5061054f600480360381019080803573ffffffffffffffffffffffffffffffffffffffff169060200190929190505050611b3e565b005b34801561055d57600080fd5b506105e060048036038101908080359060200190929190803590602001909291908035906020019092919080359060200190929190803590602001908201803590602001908080601f0160208091040260200160405190810160405280939291908181526020018383808284378201915050505050509192919290505050611f5e565b6040518082815260200191505060405180910390f35b34801561060257600080fd5b5061060b6120f0565b6040518082815260200191505060405180910390f35b34801561062d57600080fd5b506106366120f6565b604051808273ffffffffffffffffffffffffffffffffffffffff1673ffffffffffffffffffffffffffffffffffffffff16815260200191505060405180910390f35b34801561068457600080fd5b5061068d61211c565b604051808215151515815260200191505060405180910390f35b3480156106b357600080fd5b506106bc61212f565b6040518082815260200191505060405180910390f35b3480156106de57600080fd5b506106e7612135565b604051808273ffffffffffffffffffffffffffffffffffffffff1673ffffffffffffffffffffffffffffffffffffffff16815260200191505060405180910390f35b34801561073557600080fd5b5061073e61215b565b604051808273ffffffffffffffffffffffffffffffffffffffff1673ffffffffffffffffffffffffffffffffffffffff16815260200191505060405180910390f35b34801561078c57600080fd5b50610795612181565b6040518082815260200191505060405180910390f35b3480156107b757600080fd5b506107c0612187565b6040518082815260200191505060405180910390f35b3480156107e257600080fd5b506107eb61218d565b604051808273ffffffffffffffffffffffffffffffffffffffff1673ffffffffffffffffffffffffffffffffffffffff16815260200191505060405180910390f35b34801561083957600080fd5b506108c66004803603810190808035906020019092919080359060200190929190803590602001909291908035906020019092919080359060200190929190803590602001908201803590602001908080601f01602080910402602001604051908101604052809392919081815260200183838082843782019150505050505091929192905050506121b2565b005b3480156108d457600080fd5b506108dd61237c565b6040518082815260200191505060405180910390f35b3480156108ff57600080fd5b50610908612382565b604051808273ffffffffffffffffffffffffffffffffffffffff1673ffffffffffffffffffffffffffffffffffffffff16815260200191505060405180910390f35b34801561095657600080fd5b50610975600480360381019080803590602001909291905050506123a8565b604051808881526020018781526020018681526020018581526020018481526020018060200180602001838103835285818151815260200191508051906020019080838360005b838110156109d75780820151818401526020810190506109bc565b50505050905090810190601f168015610a045780820380516001836020036101000a031916815260200191505b50838103825284818151815260200191508051906020019080838360005b83811015610a3d578082015181840152602081019050610a22565b50505050905090810190601f168015610a6a5780820380516001836020036101000a031916815260200191505b50995050505050505050505060405180910390f35b348015610a8b57600080fd5b50610a94612529565b6040518082815260200191505060405180910390f35b348015610ab657600080fd5b50610abf61252f565b005b348015610acd57600080fd5b50610ad66127ae565b604051808273ffffffffffffffffffffffffffffffffffffffff1673ffffffffffffffffffffffffffffffffffffffff16815260200191505060405180910390f35b348015610b2457600080fd5b50610b43600480360381019080803590602001909291905050506127d4565b604051808273ffffffffffffffffffffffffffffffffffffffff1673ffffffffffffffffffffffffffffffffffffffff16815260200191505060405180910390f35b6000806000601554111515610b9957600080fd5b600b60003373ffffffffffffffffffffffffffffffffffffffff1673ffffffffffffffffffffffffffffffffffffffff168152602001908152602001600020549150600082111515610bea57600080fd5b600a805490509050600a60018203815481101515610c0457fe5b9060005260206000200160009054906101000a900473ffffffffffffffffffffffffffffffffffffffff16600a83815481101515610c3e57fe5b9060005260206000200160006101000a81548173ffffffffffffffffffffffffffffffffffffffff021916908373ffffffffffffffffffffffffffffffffffffffff16021790555060018103600a81610c97919061287c565b50600b60003373ffffffffffffffffffffffffffffffffffffffff1673ffffffffffffffffffffffffffffffffffffffff168152602001908152602001600020600090555050565b6000601554111515610cf057600080fd5b600160009054906101000a900473ffffffffffffffffffffffffffffffffffffffff168073ffffffffffffffffffffffffffffffffffffffff163373ffffffffffffffffffffffffffffffffffffffff16141515610d4d57600080fd5b60006014600160155403815481101515610d6357fe5b906000526020600020906007020160030154141515610d8157600080fd5b426014600160155403815481101515610d9657fe5b906000526020600020906007020160030181905550816014600160155403815481101515610dc057fe5b90600052602060002090600702016006019080519060200190610de49291906128a8565b505050565b600560009054906101000a900473ffffffffffffffffffffffffffffffffffffffff1681565b60085481565b600b6020528060005260406000206000915090505481565b60008060165442111515610e4057600080fd5b600160009054906101000a900473ffffffffffffffffffffffffffffffffffffffff168073ffffffffffffffffffffffffffffffffffffffff163373ffffffffffffffffffffffffffffffffffffffff16141515610e9d57600080fd5b60148054905060155414151515610eb357600080fd5b6000601554141515610ef55760006014600160155403815481101515610ed557fe5b90600052602060002090600702016003015414151515610ef457600080fd5b5b426014601554815481101515610f0757fe5b906000526020600020906007020160020181905550600192505b600a8054905083101561100057600a83815481101515610f3d57fe5b9060005260206000200160009054906101000a900473ffffffffffffffffffffffffffffffffffffffff1691508173ffffffffffffffffffffffffffffffffffffffff1663460fce3b6015546040518263ffffffff167c010000000000000000000000000000000000000000000000000000000002815260040180828152602001915050600060405180830381600087803b158015610fdb57600080fd5b505af1158015610fef573d6000803e3d6000fd5b505050508280600101935050610f21565b6001601560008282540192505081905550505050565b60135481565b60125481565b6000601554905090565b6000601480549050905090565b6000601654421115151561104c57600080fd5b600160009054906101000a900473ffffffffffffffffffffffffffffffffffffffff168073ffffffffffffffffffffffffffffffffffffffff163373ffffffffffffffffffffffffffffffffffffffff161415156110a957600080fd5b60016014805490501115156110bd57600080fd5b42601681905550600c54600f81905550600d54600e81905550600460019054906101000a900473ffffffffffffffffffffffffffffffffffffffff1691508173ffffffffffffffffffffffffffffffffffffffff1663972a9a99600354600460009054906101000a900460ff166040518363ffffffff167c0100000000000000000000000000000000000000000000000000000000028152600401808381526020018215151515815260200192505050600060405180830381600087803b15801561118757600080fd5b505af115801561119b573d6000803e3d6000fd5b505050505050565b60008060008060008060008060006015541415156111c057600080fd5b339750600960003373ffffffffffffffffffffffffffffffffffffffff1673ffffffffffffffffffffffffffffffffffffffff16815260200190815260200160002060009054906101000a900460ff16151561121b57600080fd5b600960003373ffffffffffffffffffffffffffffffffffffffff1673ffffffffffffffffffffffffffffffffffffffff16815260200190815260200160002060006101000a81549060ff0219169055600a3390806001815401808255809150509060018203906000526020600020016000909192909190916101000a81548173ffffffffffffffffffffffffffffffffffffffff021916908373ffffffffffffffffffffffffffffffffffffffff160217905550506001600a8054905003600b60003373ffffffffffffffffffffffffffffffffffffffff1673ffffffffffffffffffffffffffffffffffffffff168152602001908152602001600020819055503396508673ffffffffffffffffffffffffffffffffffffffff1663eec7faa16040518163ffffffff167c0100000000000000000000000000000000000000000000000000000000028152600401602060405180830381600087803b15801561138357600080fd5b505af1158015611397573d6000803e3d6000fd5b505050506040513d60208110156113ad57600080fd5b810190808051906020019092919050505095508673ffffffffffffffffffffffffffffffffffffffff16634935ce6f6040518163ffffffff167c0100000000000000000000000000000000000000000000000000000000028152600401602060405180830381600087803b15801561142457600080fd5b505af1158015611438573d6000803e3d6000fd5b505050506040513d602081101561144e57600080fd5b8101908080519060200190929190505050945061147685600f5461281290919063ffffffff16565b600f8190555061149186600e5461281290919063ffffffff16565b600e81905550601060009054906101000a900473ffffffffffffffffffffffffffffffffffffffff1673ffffffffffffffffffffffffffffffffffffffff1663a9059cbb33886040518363ffffffff167c0100000000000000000000000000000000000000000000000000000000028152600401808373ffffffffffffffffffffffffffffffffffffffff1673ffffffffffffffffffffffffffffffffffffffff16815260200182815260200192505050602060405180830381600087803b15801561155c57600080fd5b505af1158015611570573d6000803e3d6000fd5b505050506040513d602081101561158657600080fd5b8101908080519060200190929190505050151561159f57fe5b600460019054906101000a900473ffffffffffffffffffffffffffffffffffffffff1693508673ffffffffffffffffffffffffffffffffffffffff16637a6e08806040518163ffffffff167c0100000000000000000000000000000000000000000000000000000000028152600401602060405180830381600087803b15801561162857600080fd5b505af115801561163c573d6000803e3d6000fd5b505050506040513d602081101561165257600080fd5b81019080805190602001909291905050509250600560009054906101000a900473ffffffffffffffffffffffffffffffffffffffff1673ffffffffffffffffffffffffffffffffffffffff1663385c97676040518163ffffffff167c0100000000000000000000000000000000000000000000000000000000028152600401602060405180830381600087803b1580156116eb57600080fd5b505af11580156116ff573d6000803e3d6000fd5b505050506040513d602081101561171557600080fd5b8101908080519060200190929190505050915061173b828461282b90919063ffffffff16565b9050600460009054906101000a900460ff16156119ad57600660009054906101000a900473ffffffffffffffffffffffffffffffffffffffff1673ffffffffffffffffffffffffffffffffffffffff1663095ea7b3600460019054906101000a900473ffffffffffffffffffffffffffffffffffffffff16836040518363ffffffff167c0100000000000000000000000000000000000000000000000000000000028152600401808373ffffffffffffffffffffffffffffffffffffffff1673ffffffffffffffffffffffffffffffffffffffff16815260200182815260200192505050602060405180830381600087803b15801561183957600080fd5b505af115801561184d573d6000803e3d6000fd5b505050506040513d602081101561186357600080fd5b8101908080519060200190929190505050508373ffffffffffffffffffffffffffffffffffffffff16631499f419600460009054906101000a900460ff168a86856000809054906101000a900473ffffffffffffffffffffffffffffffffffffffff166040518663ffffffff167c010000000000000000000000000000000000000000000000000000000002815260040180861515151581526020018573ffffffffffffffffffffffffffffffffffffffff1673ffffffffffffffffffffffffffffffffffffffff1681526020018481526020018381526020018273ffffffffffffffffffffffffffffffffffffffff1673ffffffffffffffffffffffffffffffffffffffff16815260200195505050505050600060405180830381600087803b15801561199057600080fd5b505af11580156119a4573d6000803e3d6000fd5b50505050611ae2565b8373ffffffffffffffffffffffffffffffffffffffff16631499f419600460009054906101000a900460ff168a8660008060009054906101000a900473ffffffffffffffffffffffffffffffffffffffff166040518663ffffffff167c010000000000000000000000000000000000000000000000000000000002815260040180861515151581526020018573ffffffffffffffffffffffffffffffffffffffff1673ffffffffffffffffffffffffffffffffffffffff1681526020018481526020018381526020018273ffffffffffffffffffffffffffffffffffffffff1673ffffffffffffffffffffffffffffffffffffffff16815260200195505050505050600060405180830381600087803b158015611ac957600080fd5b505af1158015611add573d6000803e3d6000fd5b505050505b5050505050505050565b60096020528060005260406000206000915054906101000a900460ff1681565b60165481565b600160009054906101000a900473ffffffffffffffffffffffffffffffffffffffff1681565b600d5481565b60008060008060165442111515611b5457600080fd5b6000601554141515611b6557600080fd5b600160009054906101000a900473ffffffffffffffffffffffffffffffffffffffff168073ffffffffffffffffffffffffffffffffffffffff163373ffffffffffffffffffffffffffffffffffffffff16141515611bc257600080fd5b8594503073ffffffffffffffffffffffffffffffffffffffff168573ffffffffffffffffffffffffffffffffffffffff1663c66e40956040518163ffffffff167c0100000000000000000000000000000000000000000000000000000000028152600401602060405180830381600087803b158015611c4057600080fd5b505af1158015611c54573d6000803e3d6000fd5b505050506040513d6020811015611c6a57600080fd5b810190808051906020019092919050505073ffffffffffffffffffffffffffffffffffffffff16141515611c9d57600080fd5b6013548573ffffffffffffffffffffffffffffffffffffffff16637ba136806040518163ffffffff167c0100000000000000000000000000000000000000000000000000000000028152600401602060405180830381600087803b158015611d0457600080fd5b505af1158015611d18573d6000803e3d6000fd5b505050506040513d6020811015611d2e57600080fd5b810190808051906020019092919050505010151515611d4c57600080fd5b6001600960008873ffffffffffffffffffffffffffffffffffffffff1673ffffffffffffffffffffffffffffffffffffffff16815260200190815260200160002060006101000a81548160ff0219169083151502179055508473ffffffffffffffffffffffffffffffffffffffff16637ba136806040518163ffffffff167c0100000000000000000000000000000000000000000000000000000000028152600401602060405180830381600087803b158015611e0857600080fd5b505af1158015611e1c573d6000803e3d6000fd5b505050506040513d6020811015611e3257600080fd5b8101908080519060200190929190505050935060646003546064038502811515611e5857fe5b049250600460019054906101000a900473ffffffffffffffffffffffffffffffffffffffff1691508173ffffffffffffffffffffffffffffffffffffffff1663184e35a387600460009054906101000a900460ff16866040518463ffffffff167c0100000000000000000000000000000000000000000000000000000000028152600401808473ffffffffffffffffffffffffffffffffffffffff1673ffffffffffffffffffffffffffffffffffffffff168152602001831515151581526020018281526020019350505050600060405180830381600087803b158015611f3e57600080fd5b505af1158015611f52573d6000803e3d6000fd5b50505050505050505050565b60006016544211151515611f7157600080fd5b600160009054906101000a900473ffffffffffffffffffffffffffffffffffffffff168073ffffffffffffffffffffffffffffffffffffffff163373ffffffffffffffffffffffffffffffffffffffff16141515611fce57600080fd5b611fe387600c5461285e90919063ffffffff16565b600c81905550611ffe86600d5461285e90919063ffffffff16565b600d81905550601460e06040519081016040528089815260200188815260200187815260200160008152602001868152602001858152602001602060405190810160405280600081525081525090806001815401808255809150509060018203906000526020600020906007020160009091929091909150600082015181600001556020820151816001015560408201518160020155606082015181600301556080820151816004015560a08201518160050190805190602001906120c4929190612928565b5060c08201518160060190805190602001906120e1929190612928565b50505091505095945050505050565b600f5481565b600260009054906101000a900473ffffffffffffffffffffffffffffffffffffffff1681565b600460009054906101000a900460ff1681565b600e5481565b600660009054906101000a900473ffffffffffffffffffffffffffffffffffffffff1681565b600760009054906101000a900473ffffffffffffffffffffffffffffffffffffffff1681565b600c5481565b60155481565b6000809054906101000a900473ffffffffffffffffffffffffffffffffffffffff1681565b60165442111515156121c357600080fd5b600160009054906101000a900473ffffffffffffffffffffffffffffffffffffffff168073ffffffffffffffffffffffffffffffffffffffff163373ffffffffffffffffffffffffffffffffffffffff1614151561222057600080fd5b6014805490508710151561223057fe5b6122678660148981548110151561224357fe5b906000526020600020906007020160000154600c540361285e90919063ffffffff16565b600c819055506122a48560148981548110151561228057fe5b906000526020600020906007020160010154600d540361285e90919063ffffffff16565b600d81905550856014888154811015156122ba57fe5b906000526020600020906007020160000181905550846014888154811015156122df57fe5b9060005260206000209060070201600101819055508360148881548110151561230457fe5b9060005260206000209060070201600201819055508260148881548110151561232957fe5b9060005260206000209060070201600401819055508160148881548110151561234e57fe5b906000526020600020906007020160050190805190602001906123729291906128a8565b5050505050505050565b60035481565b600460019054906101000a900473ffffffffffffffffffffffffffffffffffffffff1681565b6014818154811015156123b757fe5b9060005260206000209060070201600091509050806000015490806001015490806002015490806003015490806004015490806005018054600181600116156101000203166002900480601f0160208091040260200160405190810160405280929190818152602001828054600181600116156101000203166002900480156124815780601f1061245657610100808354040283529160200191612481565b820191906000526020600020905b81548152906001019060200180831161246457829003601f168201915b505050505090806006018054600181600116156101000203166002900480601f01602080910402602001604051908101604052809291908181526020018280546001816001161561010002031660029004801561251f5780601f106124f45761010080835404028352916020019161251f565b820191906000526020600020905b81548152906001019060200180831161250257829003601f168201915b5050505050905087565b60115481565b6000600160009054906101000a900473ffffffffffffffffffffffffffffffffffffffff168073ffffffffffffffffffffffffffffffffffffffff163373ffffffffffffffffffffffffffffffffffffffff1614151561258e57600080fd5b601060009054906101000a900473ffffffffffffffffffffffffffffffffffffffff1673ffffffffffffffffffffffffffffffffffffffff166370a08231306040518263ffffffff167c0100000000000000000000000000000000000000000000000000000000028152600401808273ffffffffffffffffffffffffffffffffffffffff1673ffffffffffffffffffffffffffffffffffffffff168152602001915050602060405180830381600087803b15801561264b57600080fd5b505af115801561265f573d6000803e3d6000fd5b505050506040513d602081101561267557600080fd5b81019080805190602001909291905050509150601060009054906101000a900473ffffffffffffffffffffffffffffffffffffffff1673ffffffffffffffffffffffffffffffffffffffff1663a9059cbb6000809054906101000a900473ffffffffffffffffffffffffffffffffffffffff16846040518363ffffffff167c0100000000000000000000000000000000000000000000000000000000028152600401808373ffffffffffffffffffffffffffffffffffffffff1673ffffffffffffffffffffffffffffffffffffffff16815260200182815260200192505050602060405180830381600087803b15801561276e57600080fd5b505af1158015612782573d6000803e3d6000fd5b505050506040513d602081101561279857600080fd5b8101908080519060200190929190505050505050565b601060009054906101000a900473ffffffffffffffffffffffffffffffffffffffff1681565b600a818154811015156127e357fe5b906000526020600020016000915054906101000a900473ffffffffffffffffffffffffffffffffffffffff1681565b600082821115151561282057fe5b818303905092915050565b6000808284029050600084148061284c575082848281151561284957fe5b04145b151561285457fe5b8091505092915050565b600080828401905083811015151561287257fe5b8091505092915050565b8154818355818111156128a3578183600052602060002091820191016128a291906129a8565b5b505050565b828054600181600116156101000203166002900490600052602060002090601f016020900481019282601f106128e957805160ff1916838001178555612917565b82800160010185558215612917579182015b828111156129165782518255916020019190600101906128fb565b5b50905061292491906129a8565b5090565b828054600181600116156101000203166002900490600052602060002090601f016020900481019282601f1061296957805160ff1916838001178555612997565b82800160010185558215612997579182015b8281111561299657825182559160200191906001019061297b565b5b5090506129a491906129a8565b5090565b6129ca91905b808211156129c65760008160009055506001016129ae565b5090565b905600a165627a7a72305820b2a8fe85180d3b94b291f691c5920a7130d1143ea3f0817ee52d05679a8cc1880029",
  "source": "pragma solidity ^0.4.18;\nimport \"./ERC20Token.sol\";\nimport \"./INV_v3.sol\";\nimport \"./CommissionContract.sol\";\nimport \"./JOTOracle.sol\";\n\ncontract ICOContract {\n    using SafeMath for uint;\n\n    address public projectWallet; //beneficiary wallet\n    address public operator; //address of the ICO operator  the one who adds milestones and InvestContracts\n\n    //address public juryOnlineWallet = 0x3e134C5dAf56e0e28bd04beD46969Bd516932f02; //address that receives commission\n    address public juryOnlineWallet;\n    uint public commission = 1; //in percents\n    bool public payInJot;\n    /* address public commissionContractAddress = 0x3e134C5dAf56e0e28bd04beD46969Bd516932f02; */\n    address public commissionContractAddress;\n    JOTOracle public jotOracle;\n    Token public tokenJOT;\n    //address public oracleAddress = 0x30753e4a8aad7f8597332e813735def5dd395028;\n    address public oracleAddress;\n\n    uint public quorum; // quorum needed to determine a dispute\n\n    //uint constant waitPeriod = 7 days; //wait period after milestone finish and until the next one can be started\n\n    mapping(address => bool) public pendingInvestContracts; //pending = not yet paid\n\n    address[] public investContracts = [0x0]; // accepted InvestContracts\n    mapping(address => uint) public investContractsIndices;\n\n    uint public totalEther; // How much Ether is collected = sum of all milestones' etherAmount\n    uint public totalToken; // how many tokens are distributed = sum of all milestones' tokenAmount\n\n    uint public tokenLeft;\n    uint public etherLeft;\n\n    Token public token;\n\n    ///ICO caps\n    uint public minimumCap; // set in constructor\n    uint public maximumCap;  // set in constructor\n\n    uint public minimalInvestment;\n\n    //Structure for milestone\n    struct Milestone {\n        uint etherAmount; //how many Ether is needed for this milestone\n        uint tokenAmount; //how many tokens releases this milestone\n        uint startTime; //real time when milestone has started, set upon start\n        uint finishTime; //real time when milestone has finished, set upon finish\n        uint duration; //assumed duration for milestone implementation, set upon milestone creation\n        string description;\n        string result;\n    }\n\n    Milestone[] public milestones;\n    uint public currentMilestone; //0 indicates that no milestone has started, so the real ones start from 1\n    uint public sealTimestamp; //Until when it's possible to add new and change existing milestones\n\n    modifier only(address _sender) {\n        require(msg.sender == _sender);\n        _;\n    }\n\n    modifier notSealed() {\n        require(now <= sealTimestamp);\n        _;\n    }\n\n    modifier sealed() {\n        require(now > sealTimestamp);\n        _;\n    }\n\n    modifier started() {\n        require(currentMilestone > 0);\n        _;\n    }\n\n    modifier notStarted() {\n        require(currentMilestone == 0);\n        _;\n    }\n\n    /// @dev Create an ICOContract.\n    /// @param _tokenAddress Address of project token contract\n    /// @param _projectWallet Address of project developers wallet\n    /// @param _sealTimestamp Until this timestamp it's possible to alter milestones\n    /// @param _minimumCap Wei value of minimum cap for responsible ICO\n    /// @param _maximumCap Wei value of maximum cap for responsible ICO\n    /// @param _minimalInvestment minimal possible investment\n    /// @param _operator ICO operator, the person who adds, starts, and finishes milestones; creates InvestContracts\n    constructor(address _tokenAddress, address _projectWallet, uint _sealTimestamp, uint _minimumCap,\n                         uint _maximumCap, uint _minimalInvestment, address _operator, uint _quorum, bool _payInJot, address _commissionContractAddress ,address _juryOnlineWallet, address _jotTokenAddress, address _oracleAddress) public {\n        operator = _operator;\n        token = Token(_tokenAddress);\n        projectWallet = _projectWallet;\n        sealTimestamp = _sealTimestamp;\n        minimumCap = _minimumCap;\n        maximumCap = _maximumCap;\n        minimalInvestment = _minimalInvestment;\n        quorum = _quorum;\n        payInJot = _payInJot;\n        commissionContractAddress = _commissionContractAddress;\n        juryOnlineWallet = _juryOnlineWallet;\n        tokenJOT = Token(_jotTokenAddress);\n        /* tokenJOT = Token(0xaa588d3737b611bafd7bd713445b314bd453a5c8); */\n        oracleAddress = _oracleAddress;\n        jotOracle = JOTOracle(oracleAddress);\n\n    }\n\n    /// @dev Adds a milestone.\n    /// @param _etherAmount amount of Ether needed for the added milestone\n    /// @param _tokenAmount amount of tokens which will be released for added milestone\n    /// @param _startTime field for start timestamp of added milestone\n    /// @param _duration assumed duration of the milestone\n    /// @param _description description of added milestone\n    function addMilestone(uint _etherAmount, uint _tokenAmount, uint _startTime, uint _duration, string _description) public notSealed only(operator) returns(uint) {\n        totalEther = totalEther.add(_etherAmount);\n        totalToken = totalToken.add(_tokenAmount);\n        return milestones.push(Milestone(_etherAmount, _tokenAmount, _startTime, 0, _duration, _description, \"\"));\n    }\n\n    /// @dev Edits milestone by given id and new parameters.\n    /// @param _id id of editing milestone\n    /// @param _etherAmount amount of Ether needed for the milestone\n    /// @param _tokenAmount amount of tokens which will be released for the milestone\n    /// @param _startTime start timestamp of the milestone\n    /// @param _duration assumed duration of the milestone\n    /// @param _description description of the milestone\n    function editMilestone(uint _id, uint _etherAmount, uint _tokenAmount, uint _startTime, uint _duration, string _description) public notSealed only(operator) {\n        assert(_id < milestones.length);\n        totalEther = (totalEther - milestones[_id].etherAmount).add(_etherAmount); //previous addition\n        totalToken = (totalToken - milestones[_id].tokenAmount).add(_tokenAmount);\n        milestones[_id].etherAmount = _etherAmount;\n        milestones[_id].tokenAmount = _tokenAmount;\n        milestones[_id].startTime = _startTime;\n        milestones[_id].duration = _duration;\n        milestones[_id].description = _description;\n    }\n\n    //TODO: add check if ICOContract has tokens\n    ///@dev Seals milestone making them no longer changeable. Works by setting changeable timestamp to the current one, //so in future it would be no longer callable.\n    function seal() public notSealed only(operator) {\n        require(milestones.length > 1); //Has to have at least 2 milestones\n        //require(token.balanceOf(this) >= totalToken;\n        sealTimestamp = now;\n        etherLeft = totalEther;\n        tokenLeft = totalToken;\n        CommissionContract commissionContract = CommissionContract(commissionContractAddress);\n        commissionContract.addNewICO(commission, payInJot);\n    }\n\n    ///in fact modifier started is useless, as it will throw if currentMilestone <1, however it remains here for readability\n    ///@dev Finishes milestone\n    ///@param _result milestone result\n    function finishMilestone(string _result) public started only(operator) {\n        require(milestones[currentMilestone-1].finishTime == 0); //can be called only once\n        milestones[currentMilestone-1].finishTime = now;\n        milestones[currentMilestone-1].result = _result;\n    }\n\n    ///@dev Starts next milestone\n    function startNextMilestone() public sealed only(operator) {\n        require(currentMilestone != milestones.length); //checking if final milestone. There should be more than 1 milestone in the project\n        if (currentMilestone != 0) {\n            require(milestones[currentMilestone-1].finishTime != 0);//previous milestone has to be finished\n        }\n        milestones[currentMilestone].startTime = now; //setting the of the next milestone\n        for(uint i=1; i < investContracts.length; i++) {\n                InvestContract investContract =  InvestContract(investContracts[i]);\n                investContract.milestoneStarted(currentMilestone);\n        }\n        currentMilestone +=1;\n    }\n\n    //InvestContract part\n    /// @dev Adds InvestContract at given addres to the pending (waiting for payment) InvestContracts\n    /// @param _investContractAddress address of InvestContract\n    function addInvestContract(address _investContractAddress) public sealed notStarted only(operator) {\n        InvestContract investContract = InvestContract(_investContractAddress);\n        require(investContract.icoContract() == this);\n        require(investContract.amountToPay() >= minimalInvestment);\n        //require(milestones[0].startTime - now >= 5 days);\n        //require(maximumCap >= _etherAmount + investorEther);\n        //require(token.balanceOf(this) >= _tokenAmount + investorTokens);\n        pendingInvestContracts[_investContractAddress] = true;\n        uint amountToPay = investContract.amountToPay();\n        uint etherAmount = amountToPay*(100-commission)/100;\n        CommissionContract commissionContract = CommissionContract(commissionContractAddress);\n        commissionContract.addNewInvestContract(_investContractAddress, payInJot, etherAmount);\n    }\n\n    /// @dev This function is called by InvestContract when it receives Ether. It moves this InvestContract from pending to the real ones.\n    function investContractDeposited() public notStarted {\n        address inv_contract_address = msg.sender;\n        require(pendingInvestContracts[msg.sender]);\n        delete pendingInvestContracts[msg.sender];\n        investContracts.push(msg.sender);\n        investContractsIndices[msg.sender]=investContracts.length-1;\n\n        InvestContract investContract = InvestContract(msg.sender);\n        uint investmentToken = investContract.tokenAmount();\n        uint investmentEther = investContract.etherAmount();\n\n        etherLeft = etherLeft.sub(investmentEther);\n        tokenLeft = tokenLeft.sub(investmentToken);\n        assert(token.transfer(msg.sender, investmentToken));\n\n        CommissionContract commissionContract = CommissionContract(commissionContractAddress);\n\n        uint commissionAmount = investContract.commissionAmount();\n        /* uint commissionAmount =   1000000; */\n        /* uint commissionAmount = 100000000; */\n\n        uint eth_jot_price = jotOracle.JOTtoETH();\n        uint commissionAmountJOT = commissionAmount.mul(eth_jot_price);\n\n\n        if(payInJot){\n            tokenJOT.approve(commissionContractAddress, commissionAmountJOT);\n            commissionContract.payCommission(payInJot,inv_contract_address,commissionAmount,commissionAmountJOT,projectWallet);\n            /* commissionContract.payCommission(true,inv_contract_address,1000,500); */\n        } else {\n            commissionContract.payCommission(payInJot,inv_contract_address,commissionAmount,0,projectWallet);\n        }\n    }\n\n    /// @dev If investor has won the dispute, then InvestContract is deleted by calling this function\n    function deleteInvestContract() public started {\n        uint index = investContractsIndices[msg.sender];\n        require(index > 0);\n        uint len = investContracts.length;\n        investContracts[index] = investContracts[len-1];\n        investContracts.length = len-1;\n        delete investContractsIndices[msg.sender];\n    }\n\n    /// @dev Sends all unused tokens to projectWallet\n    function returnTokens() public only(operator) {\n        uint balance = token.balanceOf(this);\n        token.transfer(projectWallet, balance);\n    }\n\n    ///@dev Returns number of the current milestone. Starts from 1. 0 indicates that project implementation has not started yet.\n    function getCurrentMilestone() public view returns(uint) {\n        return currentMilestone;\n    }\n\n    /// @dev Getter function for length. For testing purposes.\n    function milestonesLength() public view returns(uint) {\n        return milestones.length;\n    }\n\n}\n",
  "sourcePath": "/Users/juanbernardotobar/lacanoa/daploy/contracts/ICO_v3.sol",
  "compiler": {
    "name": "solc",
    "version": "0.4.24+commit.e67f0147.Emscripten.clang"
  },
  "schemaVersion": "2.0.1",
  "updatedAt": "2018-07-18T10:18:00.567Z"
}