{
  "contractName": "InvestContract",
  "abi": [
    {
      "constant": true,
      "inputs": [],
      "name": "quorum",
      "outputs": [
        {
          "name": "",
          "type": "uint256"
        }
      ],
      "payable": false,
      "stateMutability": "view",
      "type": "function"
    },
    {
      "constant": true,
      "inputs": [],
      "name": "investor",
      "outputs": [
        {
          "name": "",
          "type": "address"
        }
      ],
      "payable": false,
      "stateMutability": "view",
      "type": "function"
    },
    {
      "constant": true,
      "inputs": [],
      "name": "etherAmount",
      "outputs": [
        {
          "name": "",
          "type": "uint256"
        }
      ],
      "payable": false,
      "stateMutability": "view",
      "type": "function"
    },
    {
      "constant": true,
      "inputs": [
        {
          "name": "",
          "type": "uint256"
        }
      ],
      "name": "disputes",
      "outputs": [
        {
          "name": "timestamp",
          "type": "uint256"
        },
        {
          "name": "reason",
          "type": "string"
        },
        {
          "name": "votesProject",
          "type": "uint256"
        },
        {
          "name": "votesInvestor",
          "type": "uint256"
        }
      ],
      "payable": false,
      "stateMutability": "view",
      "type": "function"
    },
    {
      "constant": true,
      "inputs": [
        {
          "name": "",
          "type": "address"
        }
      ],
      "name": "tokenPayments",
      "outputs": [
        {
          "name": "",
          "type": "uint256"
        }
      ],
      "payable": false,
      "stateMutability": "view",
      "type": "function"
    },
    {
      "constant": true,
      "inputs": [
        {
          "name": "",
          "type": "uint256"
        }
      ],
      "name": "arbiterList",
      "outputs": [
        {
          "name": "",
          "type": "address"
        }
      ],
      "payable": false,
      "stateMutability": "view",
      "type": "function"
    },
    {
      "constant": true,
      "inputs": [],
      "name": "commissionAmount",
      "outputs": [
        {
          "name": "",
          "type": "uint256"
        }
      ],
      "payable": false,
      "stateMutability": "view",
      "type": "function"
    },
    {
      "constant": true,
      "inputs": [],
      "name": "amountToPay",
      "outputs": [
        {
          "name": "",
          "type": "uint256"
        }
      ],
      "payable": false,
      "stateMutability": "view",
      "type": "function"
    },
    {
      "constant": true,
      "inputs": [
        {
          "name": "",
          "type": "address"
        }
      ],
      "name": "arbiters",
      "outputs": [
        {
          "name": "index",
          "type": "uint256"
        },
        {
          "name": "accepted",
          "type": "bool"
        },
        {
          "name": "voteDelay",
          "type": "uint256"
        }
      ],
      "payable": false,
      "stateMutability": "view",
      "type": "function"
    },
    {
      "constant": false,
      "inputs": [],
      "name": "withdrawTokenPayment",
      "outputs": [],
      "payable": false,
      "stateMutability": "nonpayable",
      "type": "function"
    },
    {
      "constant": false,
      "inputs": [],
      "name": "withdrawEtherPayment",
      "outputs": [],
      "payable": false,
      "stateMutability": "nonpayable",
      "type": "function"
    },
    {
      "constant": true,
      "inputs": [],
      "name": "disputing",
      "outputs": [
        {
          "name": "",
          "type": "bool"
        }
      ],
      "payable": false,
      "stateMutability": "view",
      "type": "function"
    },
    {
      "constant": true,
      "inputs": [],
      "name": "projectWallet",
      "outputs": [
        {
          "name": "",
          "type": "address"
        }
      ],
      "payable": false,
      "stateMutability": "view",
      "type": "function"
    },
    {
      "constant": true,
      "inputs": [],
      "name": "icoContract",
      "outputs": [
        {
          "name": "",
          "type": "address"
        }
      ],
      "payable": false,
      "stateMutability": "view",
      "type": "function"
    },
    {
      "constant": true,
      "inputs": [
        {
          "name": "",
          "type": "uint256"
        }
      ],
      "name": "tokenPartition",
      "outputs": [
        {
          "name": "",
          "type": "uint256"
        }
      ],
      "payable": false,
      "stateMutability": "view",
      "type": "function"
    },
    {
      "constant": true,
      "inputs": [],
      "name": "tokenAmount",
      "outputs": [
        {
          "name": "",
          "type": "uint256"
        }
      ],
      "payable": false,
      "stateMutability": "view",
      "type": "function"
    },
    {
      "constant": true,
      "inputs": [
        {
          "name": "",
          "type": "address"
        }
      ],
      "name": "etherPayments",
      "outputs": [
        {
          "name": "",
          "type": "uint256"
        }
      ],
      "payable": false,
      "stateMutability": "view",
      "type": "function"
    },
    {
      "constant": true,
      "inputs": [],
      "name": "token",
      "outputs": [
        {
          "name": "",
          "type": "address"
        }
      ],
      "payable": false,
      "stateMutability": "view",
      "type": "function"
    },
    {
      "constant": true,
      "inputs": [],
      "name": "arbiterAcceptCount",
      "outputs": [
        {
          "name": "",
          "type": "uint256"
        }
      ],
      "payable": false,
      "stateMutability": "view",
      "type": "function"
    },
    {
      "constant": true,
      "inputs": [
        {
          "name": "",
          "type": "uint256"
        }
      ],
      "name": "etherPartition",
      "outputs": [
        {
          "name": "",
          "type": "uint256"
        }
      ],
      "payable": false,
      "stateMutability": "view",
      "type": "function"
    },
    {
      "inputs": [
        {
          "name": "_ICOContractAddress",
          "type": "address"
        },
        {
          "name": "_investor",
          "type": "address"
        },
        {
          "name": "_etherAmount",
          "type": "uint256"
        },
        {
          "name": "_tokenAmount",
          "type": "uint256"
        }
      ],
      "payable": false,
      "stateMutability": "nonpayable",
      "type": "constructor"
    },
    {
      "payable": true,
      "stateMutability": "payable",
      "type": "fallback"
    },
    {
      "constant": false,
      "inputs": [
        {
          "name": "_arbiter",
          "type": "address"
        },
        {
          "name": "_delay",
          "type": "uint256"
        }
      ],
      "name": "addArbiter",
      "outputs": [],
      "payable": false,
      "stateMutability": "nonpayable",
      "type": "function"
    },
    {
      "constant": false,
      "inputs": [],
      "name": "acceptArbiter",
      "outputs": [],
      "payable": false,
      "stateMutability": "nonpayable",
      "type": "function"
    },
    {
      "constant": false,
      "inputs": [
        {
          "name": "_voteAddress",
          "type": "address"
        }
      ],
      "name": "vote",
      "outputs": [],
      "payable": false,
      "stateMutability": "nonpayable",
      "type": "function"
    },
    {
      "constant": false,
      "inputs": [
        {
          "name": "_reason",
          "type": "string"
        }
      ],
      "name": "openDispute",
      "outputs": [],
      "payable": false,
      "stateMutability": "nonpayable",
      "type": "function"
    },
    {
      "constant": false,
      "inputs": [
        {
          "name": "_milestone",
          "type": "uint256"
        }
      ],
      "name": "milestoneStarted",
      "outputs": [],
      "payable": false,
      "stateMutability": "nonpayable",
      "type": "function"
    },
    {
      "constant": true,
      "inputs": [],
      "name": "getCurrentMilestone",
      "outputs": [
        {
          "name": "",
          "type": "uint256"
        }
      ],
      "payable": false,
      "stateMutability": "view",
      "type": "function"
    }
  ],
  "bytecode": "0x6080604052602060405190810160405280600060ff16815250600c9060016200002a92919062000e96565b506000601060006101000a81548160ff0219169083151502179055503480156200005357600080fd5b5060405160808062002ef18339810180604052810190808051906020019092919080519060200190929190805190602001909291908051906020019092919050505060008060008060008060008a73ffffffffffffffffffffffffffffffffffffffff1663fc0c546a6040518163ffffffff167c0100000000000000000000000000000000000000000000000000000000028152600401602060405180830381600087803b1580156200010557600080fd5b505af11580156200011a573d6000803e3d6000fd5b505050506040513d60208110156200013157600080fd5b8101908080519060200190929190505050806000806101000a81548173ffffffffffffffffffffffffffffffffffffffff021916908373ffffffffffffffffffffffffffffffffffffffff160217905550508a600860006101000a81548173ffffffffffffffffffffffffffffffffffffffff021916908373ffffffffffffffffffffffffffffffffffffffff160217905550886011819055506064600860009054906101000a900473ffffffffffffffffffffffffffffffffffffffff1673ffffffffffffffffffffffffffffffffffffffff1663e14891916040518163ffffffff167c0100000000000000000000000000000000000000000000000000000000028152600401602060405180830381600087803b1580156200025457600080fd5b505af115801562000269573d6000803e3d6000fd5b505050506040513d60208110156200028057600080fd5b81019080805190602001909291905050506064038a02811515620002a057fe5b04600e8190555087600f81905550600860009054906101000a900473ffffffffffffffffffffffffffffffffffffffff1673ffffffffffffffffffffffffffffffffffffffff1663beb08ab96040518163ffffffff167c0100000000000000000000000000000000000000000000000000000000028152600401602060405180830381600087803b1580156200033557600080fd5b505af11580156200034a573d6000803e3d6000fd5b505050506040513d60208110156200036157600080fd5b8101908080519060200190929190505050600360006101000a81548173ffffffffffffffffffffffffffffffffffffffff021916908373ffffffffffffffffffffffffffffffffffffffff16021790555089600460006101000a81548173ffffffffffffffffffffffffffffffffffffffff021916908373ffffffffffffffffffffffffffffffffffffffff160217905550600860009054906101000a900473ffffffffffffffffffffffffffffffffffffffff1673ffffffffffffffffffffffffffffffffffffffff16631703a0186040518163ffffffff167c0100000000000000000000000000000000000000000000000000000000028152600401602060405180830381600087803b1580156200047a57600080fd5b505af11580156200048f573d6000803e3d6000fd5b505050506040513d6020811015620004a657600080fd5b8101908080519060200190929190505050600681905550600860009054906101000a900473ffffffffffffffffffffffffffffffffffffffff1673ffffffffffffffffffffffffffffffffffffffff1663e487204e6040518163ffffffff167c0100000000000000000000000000000000000000000000000000000000028152600401602060405180830381600087803b1580156200054457600080fd5b505af115801562000559573d6000803e3d6000fd5b505050506040513d60208110156200057057600080fd5b8101908080519060200190929190505050600760006101000a81548173ffffffffffffffffffffffffffffffffffffffff021916908373ffffffffffffffffffffffffffffffffffffffff160217905550600e5460115403601281905550620005fc73b69945e2cb5f740baa678b9a9c5609018314d95062000c1f640100000000026401000000009004565b6200062a7382ba96680d2b790455a7eee8b440f3205b1cdf1a62000c1f640100000000026401000000009004565b62000658734c67eb86d70354731f11981aee91d969e3823c3962000c1f640100000000026401000000009004565b600090505b600860009054906101000a900473ffffffffffffffffffffffffffffffffffffffff1673ffffffffffffffffffffffffffffffffffffffff16633baba4d76040518163ffffffff167c0100000000000000000000000000000000000000000000000000000000028152600401602060405180830381600087803b158015620006e457600080fd5b505af1158015620006f9573d6000803e3d6000fd5b505050506040513d60208110156200071057600080fd5b810190808051906020019092919050505081101562000bb457600860009054906101000a900473ffffffffffffffffffffffffffffffffffffffff1673ffffffffffffffffffffffffffffffffffffffff1663e89e4ed6826040518263ffffffff167c010000000000000000000000000000000000000000000000000000000002815260040180828152602001915050600060405180830381600087803b158015620007bb57600080fd5b505af1158015620007d0573d6000803e3d6000fd5b505050506040513d6000823e3d601f19601f8201168201806040525060e0811015620007fb57600080fd5b81019080805190602001909291908051906020019092919080519060200190929190805190602001909291908051906020019092919080516401000000008111156200084657600080fd5b828101905060208101848111156200085d57600080fd5b81518560018202830111640100000000821117156200087b57600080fd5b505092919060200180516401000000008111156200089857600080fd5b82810190506020810184811115620008af57600080fd5b8151856001820283011164010000000082111715620008cd57600080fd5b50509291905050509091929350909192509091509050508095508196505050620009f6600860009054906101000a900473ffffffffffffffffffffffffffffffffffffffff1673ffffffffffffffffffffffffffffffffffffffff1663ae6e22f16040518163ffffffff167c0100000000000000000000000000000000000000000000000000000000028152600401602060405180830381600087803b1580156200097757600080fd5b505af11580156200098c573d6000803e3d6000fd5b505050506040513d6020811015620009a357600080fd5b8101908080519060200190929190505050620009d987600e5462000d5a6401000000000262001f0f179091906401000000009004565b62000d906401000000000262001f42179091906401000000009004565b965062000b02600860009054906101000a900473ffffffffffffffffffffffffffffffffffffffff1673ffffffffffffffffffffffffffffffffffffffff1663626be5676040518163ffffffff167c0100000000000000000000000000000000000000000000000000000000028152600401602060405180830381600087803b15801562000a8357600080fd5b505af115801562000a98573d6000803e3d6000fd5b505050506040513d602081101562000aaf57600080fd5b810190808051906020019092919050505062000ae586600f5462000d5a6401000000000262001f0f179091906401000000009004565b62000d906401000000000262001f42179091906401000000009004565b955062000b27878462000dac6401000000000262001e4c179091906401000000009004565b925062000b4c868362000dac6401000000000262001e4c179091906401000000009004565b91506009879080600181540180825580915050906001820390600052602060002001600090919290919091505550600a86908060018154018082558091505090600182039060005260206000200160009091929091909150555080806001019150506200065d565b82600e54036009600081548110151562000bca57fe5b906000526020600020016000828254019250508190555081600f5403600a600081548110151562000bf757fe5b9060005260206000200160008282540192505081905550505050505050505050505062000f58565b60008062000c3b62000dcb640100000000026401000000009004565b14151562000c4857600080fd5b6001600560008282540192505081905550600c8290806001815401808255809150509060018203906000526020600020016000909192909190916101000a81548173ffffffffffffffffffffffffffffffffffffffff021916908373ffffffffffffffffffffffffffffffffffffffff16021790555090506060604051908101604052808281526020016001151581526020016001815250600b60008473ffffffffffffffffffffffffffffffffffffffff1673ffffffffffffffffffffffffffffffffffffffff1681526020019081526020016000206000820151816000015560208201518160010160006101000a81548160ff021916908315150217905550604082015181600201559050505050565b6000808284029050600084148062000d7d575082848281151562000d7a57fe5b04145b151562000d8657fe5b8091505092915050565b600080828481151562000d9f57fe5b0490508091505092915050565b600080828401905083811015151562000dc157fe5b8091505092915050565b6000600860009054906101000a900473ffffffffffffffffffffffffffffffffffffffff1673ffffffffffffffffffffffffffffffffffffffff1663b03048136040518163ffffffff167c0100000000000000000000000000000000000000000000000000000000028152600401602060405180830381600087803b15801562000e5457600080fd5b505af115801562000e69573d6000803e3d6000fd5b505050506040513d602081101562000e8057600080fd5b8101908080519060200190929190505050905090565b82805482825590600052602060002090810192821562000eff579160200282015b8281111562000efe5782518260006101000a81548173ffffffffffffffffffffffffffffffffffffffff021916908360ff1602179055509160200191906001019062000eb7565b5b50905062000f0e919062000f12565b5090565b62000f5591905b8082111562000f5157600081816101000a81549073ffffffffffffffffffffffffffffffffffffffff02191690555060010162000f19565b5090565b90565b611f898062000f686000396000f300608060405260043610610154576000357c0100000000000000000000000000000000000000000000000000000000900463ffffffff1680631703a018146103945780631e0018d6146103bf578063299a017c14610416578063460fce3b146104415780634935ce6f1461046e578063564a565d14610499578063595210ad146105545780636127421d146105bd5780636dd7d8ea1461061457806374141266146106575780637a6e0880146106c45780637ba13680146106ef5780637bf2bb101461071a5780637cc3beb2146107835780638113e2851461079a57806393046a13146107b1578063b56b64d9146107c8578063beb08ab9146107f7578063c66e40951461084e578063e450056c146108a5578063e6530b97146108e6578063eec7faa114610933578063efae82ef1461095e578063fc0c546a146109b5578063fcb1b62d14610a0c578063fd084b1614610a37575b600061015e610a78565b14151561016a57600080fd5b600460009054906101000a900473ffffffffffffffffffffffffffffffffffffffff168073ffffffffffffffffffffffffffffffffffffffff163373ffffffffffffffffffffffffffffffffffffffff161415156101c757600080fd5b600654600554101515156101da57600080fd5b601154341415156101ea57600080fd5b600860009054906101000a900473ffffffffffffffffffffffffffffffffffffffff1673ffffffffffffffffffffffffffffffffffffffff1663e487204e6040518163ffffffff167c0100000000000000000000000000000000000000000000000000000000028152600401602060405180830381600087803b15801561027057600080fd5b505af1158015610284573d6000803e3d6000fd5b505050506040513d602081101561029a57600080fd5b810190808051906020019092919050505073ffffffffffffffffffffffffffffffffffffffff166108fc6012549081150290604051600060405180830381858888f193505050501580156102f2573d6000803e3d6000fd5b50600860009054906101000a900473ffffffffffffffffffffffffffffffffffffffff1673ffffffffffffffffffffffffffffffffffffffff1663441b4f016040518163ffffffff167c0100000000000000000000000000000000000000000000000000000000028152600401600060405180830381600087803b15801561037957600080fd5b505af115801561038d573d6000803e3d6000fd5b5050505050005b3480156103a057600080fd5b506103a9610b40565b6040518082815260200191505060405180910390f35b3480156103cb57600080fd5b506103d4610b46565b604051808273ffffffffffffffffffffffffffffffffffffffff1673ffffffffffffffffffffffffffffffffffffffff16815260200191505060405180910390f35b34801561042257600080fd5b5061042b610a78565b6040518082815260200191505060405180910390f35b34801561044d57600080fd5b5061046c60048036038101908080359060200190929190505050610b6c565b005b34801561047a57600080fd5b50610483610c7e565b6040518082815260200191505060405180910390f35b3480156104a557600080fd5b506104c460048036038101908080359060200190929190505050610c84565b6040518085815260200180602001848152602001838152602001828103825285818151815260200191508051906020019080838360005b838110156105165780820151818401526020810190506104fb565b50505050905090810190601f1680156105435780820380516001836020036101000a031916815260200191505b509550505050505060405180910390f35b34801561056057600080fd5b506105bb600480360381019080803590602001908201803590602001908080601f0160208091040260200160405190810160405280939291908181526020018383808284378201915050505050509192919290505050610d4c565b005b3480156105c957600080fd5b506105fe600480360381019080803573ffffffffffffffffffffffffffffffffffffffff169060200190929190505050610e61565b6040518082815260200191505060405180910390f35b34801561062057600080fd5b50610655600480360381019080803573ffffffffffffffffffffffffffffffffffffffff169060200190929190505050610e79565b005b34801561066357600080fd5b5061068260048036038101908080359060200190929190505050611240565b604051808273ffffffffffffffffffffffffffffffffffffffff1673ffffffffffffffffffffffffffffffffffffffff16815260200191505060405180910390f35b3480156106d057600080fd5b506106d961127e565b6040518082815260200191505060405180910390f35b3480156106fb57600080fd5b50610704611284565b6040518082815260200191505060405180910390f35b34801561072657600080fd5b5061075b600480360381019080803573ffffffffffffffffffffffffffffffffffffffff16906020019092919050505061128a565b6040518084815260200183151515158152602001828152602001935050505060405180910390f35b34801561078f57600080fd5b506107986112c1565b005b3480156107a657600080fd5b506107af6113dc565b005b3480156107bd57600080fd5b506107c6611684565b005b3480156107d457600080fd5b506107dd611783565b604051808215151515815260200191505060405180910390f35b34801561080357600080fd5b5061080c611796565b604051808273ffffffffffffffffffffffffffffffffffffffff1673ffffffffffffffffffffffffffffffffffffffff16815260200191505060405180910390f35b34801561085a57600080fd5b506108636117bc565b604051808273ffffffffffffffffffffffffffffffffffffffff1673ffffffffffffffffffffffffffffffffffffffff16815260200191505060405180910390f35b3480156108b157600080fd5b506108d0600480360381019080803590602001909291905050506117e2565b6040518082815260200191505060405180910390f35b3480156108f257600080fd5b50610931600480360381019080803573ffffffffffffffffffffffffffffffffffffffff16906020019092919080359060200190929190505050611805565b005b34801561093f57600080fd5b5061094861198a565b6040518082815260200191505060405180910390f35b34801561096a57600080fd5b5061099f600480360381019080803573ffffffffffffffffffffffffffffffffffffffff169060200190929190505050611990565b6040518082815260200191505060405180910390f35b3480156109c157600080fd5b506109ca6119a8565b604051808273ffffffffffffffffffffffffffffffffffffffff1673ffffffffffffffffffffffffffffffffffffffff16815260200191505060405180910390f35b348015610a1857600080fd5b50610a216119cd565b6040518082815260200191505060405180910390f35b348015610a4357600080fd5b50610a62600480360381019080803590602001909291905050506119d3565b6040518082815260200191505060405180910390f35b6000600860009054906101000a900473ffffffffffffffffffffffffffffffffffffffff1673ffffffffffffffffffffffffffffffffffffffff1663b03048136040518163ffffffff167c0100000000000000000000000000000000000000000000000000000000028152600401602060405180830381600087803b158015610b0057600080fd5b505af1158015610b14573d6000803e3d6000fd5b505050506040513d6020811015610b2a57600080fd5b8101908080519060200190929190505050905090565b60065481565b600460009054906101000a900473ffffffffffffffffffffffffffffffffffffffff1681565b600080600860009054906101000a900473ffffffffffffffffffffffffffffffffffffffff168073ffffffffffffffffffffffffffffffffffffffff163373ffffffffffffffffffffffffffffffffffffffff16141515610bcc57600080fd5b601060009054906101000a900460ff16151515610be857600080fd5b600984815481101515610bf757fe5b90600052602060002001549250600a84815481101515610c1357fe5b90600052602060002001549150610c4c600360009054906101000a900473ffffffffffffffffffffffffffffffffffffffff16846119f6565b610c78600460009054906101000a900473ffffffffffffffffffffffffffffffffffffffff1683611a8f565b50505050565b600e5481565b600d602052806000526040600020600091509050806000015490806001018054600181600116156101000203166002900480601f016020809104026020016040519081016040528092919081815260200182805460018160011615610100020316600290048015610d365780601f10610d0b57610100808354040283529160200191610d36565b820191906000526020600020905b815481529060010190602001808311610d1957829003601f168201915b5050505050908060080154908060090154905084565b600080610d57610a78565b111515610d6357600080fd5b600460009054906101000a900473ffffffffffffffffffffffffffffffffffffffff168073ffffffffffffffffffffffffffffffffffffffff163373ffffffffffffffffffffffffffffffffffffffff16141515610dc057600080fd5b601060009054906101000a900460ff16151515610ddc57600080fd5b610de4610a78565b9150600082111515610df557600080fd5b6001601060006101000a81548160ff02191690831515021790555042600d60006001850381526020019081526020016000206000018190555082600d60006001850381526020019081526020016000206001019080519060200190610e5b929190611e6a565b50505050565b60016020528060005260406000206000915090505481565b6000806000600b60003373ffffffffffffffffffffffffffffffffffffffff1673ffffffffffffffffffffffffffffffffffffffff16815260200190815260200160002060020154111515610ecd57600080fd5b601060009054906101000a900460ff161515610ee857600080fd5b600460009054906101000a900473ffffffffffffffffffffffffffffffffffffffff1673ffffffffffffffffffffffffffffffffffffffff168373ffffffffffffffffffffffffffffffffffffffff161480610f915750600360009054906101000a900473ffffffffffffffffffffffffffffffffffffffff1673ffffffffffffffffffffffffffffffffffffffff168373ffffffffffffffffffffffffffffffffffffffff16145b1515610f9c57600080fd5b610fa4610a78565b9150600082111515610fb557600080fd5b600d6000600184038152602001908152602001600020905060008160070160003373ffffffffffffffffffffffffffffffffffffffff1673ffffffffffffffffffffffffffffffffffffffff16815260200190815260200160002060009054906101000a900473ffffffffffffffffffffffffffffffffffffffff1673ffffffffffffffffffffffffffffffffffffffff1614151561105357600080fd5b600b60003373ffffffffffffffffffffffffffffffffffffffff1673ffffffffffffffffffffffffffffffffffffffff1681526020019081526020016000206002015481600001544203101515156110aa57600080fd5b828160070160003373ffffffffffffffffffffffffffffffffffffffff1673ffffffffffffffffffffffffffffffffffffffff16815260200190815260200160002060006101000a81548173ffffffffffffffffffffffffffffffffffffffff021916908373ffffffffffffffffffffffffffffffffffffffff1602179055503381600201826009015483600801540160058110151561114657fe5b0160006101000a81548173ffffffffffffffffffffffffffffffffffffffff021916908373ffffffffffffffffffffffffffffffffffffffff160217905550600360009054906101000a900473ffffffffffffffffffffffffffffffffffffffff1673ffffffffffffffffffffffffffffffffffffffff168373ffffffffffffffffffffffffffffffffffffffff16141561120d57600181600801600082825401925050819055506006548160080154101515611208576112076001611b28565b5b61123b565b60018160090160008282540192505081905550600654816009015410151561123a576112396000611b28565b5b5b505050565b600c8181548110151561124f57fe5b906000526020600020016000915054906101000a900473ffffffffffffffffffffffffffffffffffffffff1681565b60125481565b60115481565b600b6020528060005260406000206000915090508060000154908060010160009054906101000a900460ff16908060020154905083565b6000600b60003373ffffffffffffffffffffffffffffffffffffffff1673ffffffffffffffffffffffffffffffffffffffff1681526020019081526020016000206002015411151561131257600080fd5b600b60003373ffffffffffffffffffffffffffffffffffffffff1673ffffffffffffffffffffffffffffffffffffffff16815260200190815260200160002060010160009054906101000a900460ff1615151561136e57600080fd5b6001600b60003373ffffffffffffffffffffffffffffffffffffffff1673ffffffffffffffffffffffffffffffffffffffff16815260200190815260200160002060010160006101000a81548160ff0219169083151502179055506001600560008282540192505081905550565b6000600160003373ffffffffffffffffffffffffffffffffffffffff1673ffffffffffffffffffffffffffffffffffffffff1681526020019081526020016000205490506000811415151561143057600080fd5b806000809054906101000a900473ffffffffffffffffffffffffffffffffffffffff1673ffffffffffffffffffffffffffffffffffffffff166370a08231306040518263ffffffff167c0100000000000000000000000000000000000000000000000000000000028152600401808273ffffffffffffffffffffffffffffffffffffffff1673ffffffffffffffffffffffffffffffffffffffff168152602001915050602060405180830381600087803b1580156114ed57600080fd5b505af1158015611501573d6000803e3d6000fd5b505050506040513d602081101561151757600080fd5b81019080805190602001909291905050501015151561153557600080fd5b6000600160003373ffffffffffffffffffffffffffffffffffffffff1673ffffffffffffffffffffffffffffffffffffffff168152602001908152602001600020819055506000809054906101000a900473ffffffffffffffffffffffffffffffffffffffff1673ffffffffffffffffffffffffffffffffffffffff1663a9059cbb33836040518363ffffffff167c0100000000000000000000000000000000000000000000000000000000028152600401808373ffffffffffffffffffffffffffffffffffffffff1673ffffffffffffffffffffffffffffffffffffffff16815260200182815260200192505050602060405180830381600087803b15801561163e57600080fd5b505af1158015611652573d6000803e3d6000fd5b505050506040513d602081101561166857600080fd5b8101908080519060200190929190505050151561168157fe5b50565b6000600260003373ffffffffffffffffffffffffffffffffffffffff1673ffffffffffffffffffffffffffffffffffffffff168152602001908152602001600020549050600081141515156116d857600080fd5b803073ffffffffffffffffffffffffffffffffffffffff1631101515156116fe57600080fd5b6000600260003373ffffffffffffffffffffffffffffffffffffffff1673ffffffffffffffffffffffffffffffffffffffff168152602001908152602001600020819055503373ffffffffffffffffffffffffffffffffffffffff166108fc829081150290604051600060405180830381858888f19350505050151561178057fe5b50565b601060009054906101000a900460ff1681565b600360009054906101000a900473ffffffffffffffffffffffffffffffffffffffff1681565b600860009054906101000a900473ffffffffffffffffffffffffffffffffffffffff1681565b600a818154811015156117f157fe5b906000526020600020016000915090505481565b600080611810610a78565b14151561181c57600080fd5b600460009054906101000a900473ffffffffffffffffffffffffffffffffffffffff168073ffffffffffffffffffffffffffffffffffffffff163373ffffffffffffffffffffffffffffffffffffffff1614151561187957600080fd5b60008311151561188857600080fd5b600c8490806001815401808255809150509060018203906000526020600020016000909192909190916101000a81548173ffffffffffffffffffffffffffffffffffffffff021916908373ffffffffffffffffffffffffffffffffffffffff160217905550915060606040519081016040528083815260200160001515815260200184815250600b60008673ffffffffffffffffffffffffffffffffffffffff1673ffffffffffffffffffffffffffffffffffffffff1681526020019081526020016000206000820151816000015560208201518160010160006101000a81548160ff0219169083151502179055506040820151816002015590505050505050565b600f5481565b60026020528060005260406000206000915090505481565b6000809054906101000a900473ffffffffffffffffffffffffffffffffffffffff1681565b60055481565b6009818154811015156119e257fe5b906000526020600020016000915090505481565b611a4881600260008573ffffffffffffffffffffffffffffffffffffffff1673ffffffffffffffffffffffffffffffffffffffff16815260200190815260200160002054611e4c90919063ffffffff16565b600260008473ffffffffffffffffffffffffffffffffffffffff1673ffffffffffffffffffffffffffffffffffffffff168152602001908152602001600020819055505050565b611ae181600160008573ffffffffffffffffffffffffffffffffffffffff1673ffffffffffffffffffffffffffffffffffffffff16815260200190815260200160002054611e4c90919063ffffffff16565b600160008473ffffffffffffffffffffffffffffffffffffffff1673ffffffffffffffffffffffffffffffffffffffff168152602001908152602001600020819055505050565b801515611e2d57611b72600460009054906101000a900473ffffffffffffffffffffffffffffffffffffffff163073ffffffffffffffffffffffffffffffffffffffff16316119f6565b6000809054906101000a900473ffffffffffffffffffffffffffffffffffffffff1673ffffffffffffffffffffffffffffffffffffffff1663a9059cbb600860009054906101000a900473ffffffffffffffffffffffffffffffffffffffff166000809054906101000a900473ffffffffffffffffffffffffffffffffffffffff1673ffffffffffffffffffffffffffffffffffffffff166370a08231306040518263ffffffff167c0100000000000000000000000000000000000000000000000000000000028152600401808273ffffffffffffffffffffffffffffffffffffffff1673ffffffffffffffffffffffffffffffffffffffff168152602001915050602060405180830381600087803b158015611c8e57600080fd5b505af1158015611ca2573d6000803e3d6000fd5b505050506040513d6020811015611cb857600080fd5b81019080805190602001909291905050506040518363ffffffff167c0100000000000000000000000000000000000000000000000000000000028152600401808373ffffffffffffffffffffffffffffffffffffffff1673ffffffffffffffffffffffffffffffffffffffff16815260200182815260200192505050602060405180830381600087803b158015611d4e57600080fd5b505af1158015611d62573d6000803e3d6000fd5b505050506040513d6020811015611d7857600080fd5b810190808051906020019092919050505050600860009054906101000a900473ffffffffffffffffffffffffffffffffffffffff1673ffffffffffffffffffffffffffffffffffffffff166306bc7ef36040518163ffffffff167c0100000000000000000000000000000000000000000000000000000000028152600401600060405180830381600087803b158015611e1057600080fd5b505af1158015611e24573d6000803e3d6000fd5b50505050611e49565b6000601060006101000a81548160ff0219169083151502179055505b50565b6000808284019050838110151515611e6057fe5b8091505092915050565b828054600181600116156101000203166002900490600052602060002090601f016020900481019282601f10611eab57805160ff1916838001178555611ed9565b82800160010185558215611ed9579182015b82811115611ed8578251825591602001919060010190611ebd565b5b509050611ee69190611eea565b5090565b611f0c91905b80821115611f08576000816000905550600101611ef0565b5090565b90565b60008082840290506000841480611f305750828482811515611f2d57fe5b04145b1515611f3857fe5b8091505092915050565b6000808284811515611f5057fe5b04905080915050929150505600a165627a7a72305820f4ce651217fd60e3e84ea282f4df84556842f59c466034d18cc0e1c54f94b88c0029",
  "source": "pragma solidity ^0.4.18;\nimport \"./ICO_v3.sol\";\nimport \"./Pullable.sol\";\n\ncontract InvestContract is TokenPullable, Pullable {\n    using SafeMath for uint;\n\n    address public projectWallet; //beneficiary\n    address public investor;\n\n    uint public arbiterAcceptCount;\n    uint public quorum;\n    address commissionContractAddress;\n\n\n    ICOContract public icoContract;\n\n    uint[] public etherPartition; //weis\n    uint[] public tokenPartition; //tokens\n\n    //Each arbiter has parameter delay which equals time interval in seconds betwwen dispute open and when the arbiter can vote\n    struct ArbiterInfo {\n        uint index;\n        bool accepted;\n        uint voteDelay;\n    }\n\n    mapping(address => ArbiterInfo) public arbiters; //arbiterAddress => ArbiterInfo{acceptance, voteDelay}\n    address[] public arbiterList = [0x0]; //it's needed to show complete arbiter list\n\n    //this structure can be optimized\n    struct Dispute {\n        uint timestamp;\n        string reason;\n        address[5] voters;\n        mapping(address => address) votes;\n        uint votesProject;\n        uint votesInvestor;\n    }\n\n    mapping(uint => Dispute) public disputes;\n\n    uint public etherAmount; //How much Ether investor wants to invest\n    uint public tokenAmount; //How many tokens investor wants to receive\n\n    bool public disputing = false;\n    uint public amountToPay; //investAmount + commission\n    uint public commissionAmount;\n\n    modifier only(address _sender) {\n        require(msg.sender == _sender);\n        _;\n    }\n\n    modifier onlyArbiter() {\n        require(arbiters[msg.sender].voteDelay > 0);\n        _;\n    }\n\n    modifier started() {\n        require(getCurrentMilestone() > 0);\n        _;\n    }\n\n    modifier notStarted() {\n        require(getCurrentMilestone() == 0);\n        _;\n    }\n\n    ///@dev Creates an InvestContract\n    constructor(address _ICOContractAddress, address _investor,  uint _etherAmount, uint _tokenAmount)\n    TokenPullable(ICOContract(_ICOContractAddress).token()) //wierd initialization: TokenPullable needs token address and must be set before InvestContract constructor takes place\n    public {\n        icoContract = ICOContract(_ICOContractAddress);\n        amountToPay = _etherAmount;\n\t\t    etherAmount = _etherAmount*(100-icoContract.commission())/100; //Ether commission handling\n        tokenAmount = _tokenAmount;\n        projectWallet = icoContract.projectWallet();\n        investor = _investor;\n        quorum = icoContract.quorum();\n        commissionContractAddress = icoContract.commissionContractAddress();\n\n        commissionAmount = amountToPay-etherAmount;\n\n        addAcceptedArbiter(0xB69945E2cB5f740bAa678b9A9c5609018314d950); //Valery\n        addAcceptedArbiter(0x82ba96680D2b790455A7Eee8B440F3205B1cDf1a); //Valery\n        addAcceptedArbiter(0x4C67EB86d70354731f11981aeE91d969e3823c39); //Alex\n\n\t\tuint milestoneEtherAmount; //How much Ether does investor send for a milestone\n\t\tuint milestoneTokenAmount; //How many Tokens does investor receive for a milestone\n\n\t\tuint milestoneEtherTarget; //How much TOTAL Ether a milestone needs\n\t\tuint milestoneTokenTarget; //How many TOTAL tokens a milestone releases\n\n\t\tuint totalEtherInvestment;\n\t\tuint totalTokenInvestment;\n\t\tfor(uint i=0; i<icoContract.milestonesLength(); i++) {\n\t\t\t(milestoneEtherTarget, milestoneTokenTarget, , , , , ) = icoContract.milestones(i);\n\t\t\tmilestoneEtherAmount = etherAmount.mul(milestoneEtherTarget).div(icoContract.totalEther());\n\t\t\tmilestoneTokenAmount = tokenAmount.mul(milestoneTokenTarget).div(icoContract.totalToken());\n\t\t\ttotalEtherInvestment = totalEtherInvestment.add(milestoneEtherAmount); //used to prevent rounding errors\n\t\t\ttotalTokenInvestment = totalTokenInvestment.add(milestoneTokenAmount); //used to prevent rounding errors\n\t\t\tetherPartition.push(milestoneEtherAmount);\n\t\t\ttokenPartition.push(milestoneTokenAmount);\n\t\t}\n\t\tetherPartition[0] += etherAmount - totalEtherInvestment; //rounding error is added to the first milestone\n\t\ttokenPartition[0] += tokenAmount - totalTokenInvestment; //rounding error is added to the first milestone\n    }\n\n    function() payable public notStarted only(investor) {\n        require(arbiterAcceptCount >= quorum);\n        require(msg.value == amountToPay);\n        /* icoContract.juryOnlineWallet().transfer(commissionAmount); */\n        /* icoContract.commissionContractAddress().transfer(amountToPay-etherAmount); */\n        icoContract.commissionContractAddress().transfer(commissionAmount);\n        icoContract.investContractDeposited();\n    }\n\n    //Adding an arbiter which has already accepted his participation in ICO.\n    function addAcceptedArbiter(address _arbiter) internal notStarted {\n        arbiterAcceptCount +=1;\n        uint index = arbiterList.push(_arbiter);\n        arbiters[_arbiter] = ArbiterInfo(index, true, 1);\n    }\n\n    function addArbiter(address _arbiter, uint _delay) public notStarted only(investor) {\n        require(_delay > 0);\n        uint index = arbiterList.push(_arbiter);\n        arbiters[_arbiter] = ArbiterInfo(index, false, _delay);\n    }\n\n    function acceptArbiter() public onlyArbiter {\n        require(!arbiters[msg.sender].accepted);\n        arbiters[msg.sender].accepted = true;\n        arbiterAcceptCount += 1;\n    }\n\n    function vote(address _voteAddress) public onlyArbiter {\n        require(disputing);\n        require(_voteAddress == investor || _voteAddress == projectWallet);\n\n        uint milestone = getCurrentMilestone();\n        require(milestone > 0);\n        Dispute storage dispute = disputes[milestone-1];\n        require(dispute.votes[msg.sender] == 0);\n        require(now - dispute.timestamp >= arbiters[msg.sender].voteDelay); //checking if enough time has passed since dispute had been opened\n        dispute.votes[msg.sender] = _voteAddress; //sets the vote\n        dispute.voters[dispute.votesProject+dispute.votesInvestor] = msg.sender; // this line means adding arbiter to dispute.voters\n        if (_voteAddress == projectWallet) {\n            dispute.votesProject += 1;\n            if (dispute.votesProject >= quorum) {\n                executeVerdict(true);\n            }\n        } else {\n            dispute.votesInvestor += 1;\n            if (dispute.votesInvestor >= quorum) {\n                executeVerdict(false);\n            }\n        }\n    }\n\n    function executeVerdict(bool _projectWon) internal {\n        if (!_projectWon) {\n            asyncSend(investor, address(this).balance);\n            token.transfer(icoContract, token.balanceOf(this)); // send all tokens back\n            //asyncTokenSend(token.transfer(icoContract, token.balanceOf(this))); // send all tokens back\n            icoContract.deleteInvestContract();\n        } else {//if project won then implementation proceeds\n            disputing = false;\n        }\n    }\n\n    function openDispute(string _reason) public started only(investor) {\n        require(!disputing);\n        uint milestone = getCurrentMilestone();\n        require(milestone > 0);\n        disputing = true;\n        disputes[milestone-1].timestamp = now;\n        disputes[milestone-1].reason = _reason;\n    }\n\n    ///@dev When new milestone is started this functions is called\n\tfunction milestoneStarted(uint _milestone) public only(icoContract) {\n        require(!disputing);\n\t\tuint etherToSend = etherPartition[_milestone];\n\t\tuint tokensToSend = tokenPartition[_milestone];\n\n\t\tasyncSend(projectWallet, etherToSend);\n\t\tasyncTokenSend(investor, tokensToSend);\n    }\n\n    function getCurrentMilestone() public view returns(uint) {\n        return icoContract.currentMilestone();\n    }\n\n}\n",
  "sourcePath": "/Users/juanbernardotobar/lacanoa/daploy/contracts/INV_v3.sol",
  "compiler": {
    "name": "solc",
    "version": "0.4.24+commit.e67f0147.Emscripten.clang"
  },
  "schemaVersion": "2.0.1",
  "updatedAt": "2018-07-18T10:18:00.718Z"
}