{
  "contractName": "JOTOracle",
  "abi": [
    {
      "constant": true,
      "inputs": [],
      "name": "JOTtoETH",
      "outputs": [
        {
          "name": "",
          "type": "uint256"
        }
      ],
      "payable": false,
      "stateMutability": "view",
      "type": "function"
    },
    {
      "constant": true,
      "inputs": [],
      "name": "owner",
      "outputs": [
        {
          "name": "",
          "type": "address"
        }
      ],
      "payable": false,
      "stateMutability": "view",
      "type": "function"
    },
    {
      "inputs": [],
      "payable": false,
      "stateMutability": "nonpayable",
      "type": "constructor"
    },
    {
      "anonymous": false,
      "inputs": [],
      "name": "CallbackGetJOT",
      "type": "event"
    },
    {
      "constant": false,
      "inputs": [],
      "name": "updateJOT",
      "outputs": [],
      "payable": false,
      "stateMutability": "nonpayable",
      "type": "function"
    },
    {
      "constant": false,
      "inputs": [
        {
          "name": "_price",
          "type": "uint256"
        }
      ],
      "name": "setJOT",
      "outputs": [],
      "payable": false,
      "stateMutability": "nonpayable",
      "type": "function"
    },
    {
      "constant": true,
      "inputs": [],
      "name": "getRTS",
      "outputs": [
        {
          "name": "",
          "type": "uint256"
        }
      ],
      "payable": false,
      "stateMutability": "view",
      "type": "function"
    }
  ],
  "bytecode": "0x608060405234801561001057600080fd5b50336000806101000a81548173ffffffffffffffffffffffffffffffffffffffff021916908373ffffffffffffffffffffffffffffffffffffffff160217905550610257806100606000396000f30060806040526004361061006d576000357c0100000000000000000000000000000000000000000000000000000000900463ffffffff16806313c218461461007257806323defb081461009f578063385c9767146100ca5780635f35f974146100f55780638da5cb5b1461010c575b600080fd5b34801561007e57600080fd5b5061009d60048036038101908080359060200190929190505050610163565b005b3480156100ab57600080fd5b506100b46101c8565b6040518082815260200191505060405180910390f35b3480156100d657600080fd5b506100df6101d2565b6040518082815260200191505060405180910390f35b34801561010157600080fd5b5061010a6101d8565b005b34801561011857600080fd5b50610121610206565b604051808273ffffffffffffffffffffffffffffffffffffffff1673ffffffffffffffffffffffffffffffffffffffff16815260200191505060405180910390f35b6000809054906101000a900473ffffffffffffffffffffffffffffffffffffffff1673ffffffffffffffffffffffffffffffffffffffff163373ffffffffffffffffffffffffffffffffffffffff161415156101be57600080fd5b8060018190555050565b6000600154905090565b60015481565b7f8c5be4925a6b7ee9e8e2e238ca173ef4ed7a52a3ccc2d6b2b7f29dc5e3e8bcfe60405160405180910390a1565b6000809054906101000a900473ffffffffffffffffffffffffffffffffffffffff16815600a165627a7a7230582014557107ddb59fa4a3ef4b93f4ed4965e5267b4ad13c2910e06da9a2d1ae33c40029",
  "source": "pragma solidity ^0.4.17;\n\ncontract JOTOracle {\n  // Contract owner\n  address public owner;\n\n  // BTC Marketcap Storage\n  // uint public btcMarketCap;\n  uint public JOTtoETH;\n\n  // Callback function\n  event CallbackGetJOT();\n\n  constructor() public {\n    owner = msg.sender;\n  }\n\n  function updateJOT() public {\n    // Calls the callback function\n    emit CallbackGetJOT();\n  }\n\n  function setJOT(uint _price) public {\n    // If it isn't sent by a trusted oracle\n    // a.k.a ourselves, ignore it\n    require(msg.sender == owner);\n    JOTtoETH = _price;\n  }\n\n  function getRTS() constant public returns (uint) {\n    return JOTtoETH;\n  }\n}\n",
  "sourcePath": "/Users/juanbernardotobar/lacanoa/daploy/contracts/JOTOracle.sol",
  "compiler": {
    "name": "solc",
    "version": "0.4.24+commit.e67f0147.Emscripten.clang"
  },
  "schemaVersion": "2.0.1",
  "updatedAt": "2018-07-18T10:18:00.703Z"
}