{
  "contractName": "TokenPullable",
  "abi": [
    {
      "constant": true,
      "inputs": [
        {
          "name": "",
          "type": "address"
        }
      ],
      "name": "tokenPayments",
      "outputs": [
        {
          "name": "",
          "type": "uint256"
        }
      ],
      "payable": false,
      "stateMutability": "view",
      "type": "function"
    },
    {
      "constant": true,
      "inputs": [],
      "name": "token",
      "outputs": [
        {
          "name": "",
          "type": "address"
        }
      ],
      "payable": false,
      "stateMutability": "view",
      "type": "function"
    },
    {
      "inputs": [
        {
          "name": "_token",
          "type": "address"
        }
      ],
      "payable": false,
      "stateMutability": "nonpayable",
      "type": "constructor"
    },
    {
      "constant": false,
      "inputs": [],
      "name": "withdrawTokenPayment",
      "outputs": [],
      "payable": false,
      "stateMutability": "nonpayable",
      "type": "function"
    }
  ],
  "bytecode": "0x608060405234801561001057600080fd5b506040516020806104b583398101806040528101908080519060200190929190505050806000806101000a81548173ffffffffffffffffffffffffffffffffffffffff021916908373ffffffffffffffffffffffffffffffffffffffff16021790555050610432806100836000396000f300608060405260043610610057576000357c0100000000000000000000000000000000000000000000000000000000900463ffffffff1680636127421d1461005c5780638113e285146100b3578063fc0c546a146100ca575b600080fd5b34801561006857600080fd5b5061009d600480360381019080803573ffffffffffffffffffffffffffffffffffffffff169060200190929190505050610121565b6040518082815260200191505060405180910390f35b3480156100bf57600080fd5b506100c8610139565b005b3480156100d657600080fd5b506100df6103e1565b604051808273ffffffffffffffffffffffffffffffffffffffff1673ffffffffffffffffffffffffffffffffffffffff16815260200191505060405180910390f35b60016020528060005260406000206000915090505481565b6000600160003373ffffffffffffffffffffffffffffffffffffffff1673ffffffffffffffffffffffffffffffffffffffff1681526020019081526020016000205490506000811415151561018d57600080fd5b806000809054906101000a900473ffffffffffffffffffffffffffffffffffffffff1673ffffffffffffffffffffffffffffffffffffffff166370a08231306040518263ffffffff167c0100000000000000000000000000000000000000000000000000000000028152600401808273ffffffffffffffffffffffffffffffffffffffff1673ffffffffffffffffffffffffffffffffffffffff168152602001915050602060405180830381600087803b15801561024a57600080fd5b505af115801561025e573d6000803e3d6000fd5b505050506040513d602081101561027457600080fd5b81019080805190602001909291905050501015151561029257600080fd5b6000600160003373ffffffffffffffffffffffffffffffffffffffff1673ffffffffffffffffffffffffffffffffffffffff168152602001908152602001600020819055506000809054906101000a900473ffffffffffffffffffffffffffffffffffffffff1673ffffffffffffffffffffffffffffffffffffffff1663a9059cbb33836040518363ffffffff167c0100000000000000000000000000000000000000000000000000000000028152600401808373ffffffffffffffffffffffffffffffffffffffff1673ffffffffffffffffffffffffffffffffffffffff16815260200182815260200192505050602060405180830381600087803b15801561039b57600080fd5b505af11580156103af573d6000803e3d6000fd5b505050506040513d60208110156103c557600080fd5b810190808051906020019092919050505015156103de57fe5b50565b6000809054906101000a900473ffffffffffffffffffffffffffffffffffffffff16815600a165627a7a72305820b53f293898da747d6c151b9c6b6238d5ced860e1d5ef9080fdf481f47060b71d0029",
  "source": "pragma solidity ^0.4.18;\nimport \"./ERC20Token.sol\";\n\n/**\n * @title Pullable\n * @dev Base contract supporting async send for pull payments. Inherit from this\n * contract and use asyncSend instead of send. Originally taken from https://github.com/OpenZeppelin/zeppelin-solidity\n * with few changes.\n */\ncontract Pullable {\n  using SafeMath for uint256;\n\n  mapping(address => uint256) public etherPayments;\n\n  /**\n  * @dev withdraw accumulated balance, called by payee.\n  */\n  function withdrawEtherPayment() public {\n    uint payment = etherPayments[msg.sender];\n    require(payment != 0);\n    require(address(this).balance >= payment);\n    etherPayments[msg.sender] = 0;\n    assert(msg.sender.send(payment));\n  }\n\n  /**\n  * @dev Called by the payer to store the sent amount as credit to be pulled.\n  * @param _destination The destination address of the funds.\n  * @param _amount The amount to transfer.\n  */\n  function asyncSend(address _destination, uint256 _amount) internal {\n    etherPayments[_destination] = etherPayments[_destination].add(_amount);\n  }\n}\n\n//Asynchronous send is used both for sending the Ether and tokens.\ncontract TokenPullable {\n  using SafeMath for uint256;\n  Token public token;\n\n  mapping(address => uint256) public tokenPayments;\n\n  constructor(address _token) public {\n      token = Token(_token);\n  }\n\n  /**\n  * @dev withdraw accumulated balance, called by payee.\n  */\n  function withdrawTokenPayment() public {\n    uint tokenPayment = tokenPayments[msg.sender];\n    require(tokenPayment != 0);\n    require(token.balanceOf(address(this)) >= tokenPayment);\n    tokenPayments[msg.sender] = 0;\n    assert(token.transfer(msg.sender, tokenPayment));\n  }\n\n  function asyncTokenSend(address _destination, uint _amount) internal {\n    tokenPayments[_destination] = tokenPayments[_destination].add(_amount);\n  }\n}\n\n",
  "sourcePath": "/Users/juanbernardotobar/lacanoa/daploy/contracts/Pullable.sol",
  "compiler": {
    "name": "solc",
    "version": "0.4.24+commit.e67f0147.Emscripten.clang"
  },
  "schemaVersion": "2.0.1",
  "updatedAt": "2018-07-18T10:18:00.591Z"
}